:020000020000FC
:100000000C9402000FEF04B90FEF0AB903E007B92F
:1000100002EE05B90FEF0DBF08E00EBFF89403E83C
:1000200000937A0005E600937C00CDD000E005B98E
:100030000FEF04B901E80093800009E0009381000C
:1000400078943AEF8827AA27ABB988B905E6BBD0E0
:10005000E1E020E02BB92093890000938800E5B906
:100060008ED020E02093890020938800E4E0882748
:1000700000FB80F901FB81F90BB988B9E5B97FD0A4
:100080000E94AE00E8E0AB2F0E945D008827A0FB35
:1000900080F9A1FB81F9E5B9ABB988B970D0E0E18D
:1000A000AC2F0E945D008827A0FB80F9A1FB81F99D
:1000B000E5B9ABB988B963D0C5CF6FE0A61768F5CD
:1000C0006EE0A61760F56DE0A61758F56CE0A61770
:1000D00050F56BE0A61748F56AE0A61740F569E011
:1000E000A61738F568E0A61730F567E0A61728F5DB
:1000F00066E0A61720F565E0A61718F564E0A617D8
:1001000010F563E0A61708F562E0A61700F561E0B8
:10011000A617F8F460E0A617F0F4A2EE1EC0A2EF56
:100120001CC0AFE71AC0A2E718C0AFEF16C0AEEE12
:1001300014C0AEED12C0AEEF10C0AEE00EC0AAEF1C
:100140000CC0AAED0AC0ACEC08C0AEE906C0A6EB34
:1001500004C0ACE002C0AEE700C00895CC27BB27C6
:10016000B02FB695B695B695B695C02FCC0FCC0FDF
:10017000CC0FCC0FC695C695C695C6950895552744
:1001800066277727442750E061E0550F67FB50F959
:10019000660F550F67FB50F9660F71506040504075
:1001A000541308C0641309C074130AC0000000008F
:1001B00000000895000000000000000000000000A2
:1001C00000000000EACF00937C0090917A009BB978
:1001D0005E9A9BB190937A0090917A009BB95E9958
:1001E000FBCF9BB190937A00009178000091790049
:0201F000089570
:00000001FF
