:020000020000FC
:0200000004C03A
:02000400CEC06C
:10000800D6C00FEF04B900EF0AB90FE007B906EC44
:1000180005B90FEF0DBF08E00EBFF89403E8009391
:100028007A0005E600937C0063D101EA0093800022
:1000380009E000938100BB27CC27AA2700E005BF71
:1000480003E00DBB0CBB0AE00093690040E0789424
:1000580001E0042309F024C01124109289001092B1
:100068008800A0FDB093880010928B0010928A003F
:10007800A1FDC0938A0017E015B982E17CD014D1A4
:100088001EE015B980E177D00FD116E115B981E1ED
:1000980072D00AD116E215B982E16DD005D1D8CF58
:1000A8001124109289001092880010928B001092EF
:1000B8008A0018B80FE00BB909E04017D8F508E036
:1000C8004017C0F505E04017B0F404E0401798F475
:1000D80001E0401718F400E0401700F409D1BD2FE3
:1000E80017E015B98DE047D0DFD01EE015B983E1E0
:1000F80042D0DAD00CC0FCD0CD2F11E015B98DE07C
:100108003AD0D2D018E015B984E135D0CDD00D2F32
:10011800007F069506950695069510E115B9802F7E
:100128002AD0C2D00D2F0F7010E215B9802F23D01E
:10013800BBD08ECFDDD011E015B98CE01CD0B4D087
:1001480018E015B985E117D0AFD08827D7FB10E1A3
:1001580015B980F910D0A8D08827D6FB10E215B9B8
:1001680080F909D0A1D0AD2FA695A695A695A695FC
:10017800A695A6956DCF27D00F9300913F000F93BA
:10018800382F307F0FE0300F3BB9282F2F7028B958
:100198000F9100933F000F9108950F93439502E04C
:1001A800042311F00CEF40230F91789451CF0F9353
:1001B80004E0400F0CE004230C5011F403EE40233C
:1001C8000F91789445CF0F9305E18017F8F504E176
:1001D8008017F0F503E18017E8F502E18017E0F5F4
:1001E80001E18017D8F500E18017D0F50FE08017FE
:1001F800C8F50EE08017C0F50DE08017B8F50CE0E3
:100208008017B0F50BE08017A8F50AE08017A0F575
:1002180009E0801798F508E0801790F507E0801747
:1002280088F506E0801780F505E0801778F504E08A
:10023800801770F503E0801768F502E0801760F515
:1002480001E0801758F500E0801750F58DEE2AC0C0
:1002580087EB28C08DE026C080E824C088EA22C049
:1002680088EB20C082EE1EC082EF1CC08CEB1AC047
:1002780082E718C088EF16C08EEE14C08EED12C04B
:100288008EEF10C08EE00EC08AEF0CC08AED0AC057
:100298008CEC08C08EE906C086EB04C08CE002C076
:1002A8008EE700C00F9108955527662777271124F8
:1002B80050E061E0550F67FB50F9660F550F67FB7B
:1002C80050F9660F715060405040511108C06111DB
:1002D80009C071110AC00000000000000895000064
:1002E8000000000000000000000000000000EACF4D
:1002F800D5E6D0937C0090917A009BB95E9A9BB129
:1003080090937A0090917A009BB95E99FBCF9BB14C
:0E03180090937A00D0917800D09179000895EA
:00000001FF
