:020000020000FC
:020000003FC0FF
:0200040008C131
:0200080010C125
:0200540008C0E2
:100066000F9300913F000F93D0917800D0917900C3
:100076000F9100933F000F9118950FEF04B900EF11
:100086000AB90FE007B906EC05B90FEF0DBF08E096
:100096000EBFF8940FEE00937A0000E000937B0009
:1000A60005E600937C0001EA0093800009E00093D6
:1000B6008100BB27CC27AA2700E005BF03E00DBBC4
:1000C6000CBB0AE00093690040E0789401E0042349
:1000D60009F024C011241092890010928800A0FD16
:1000E600B093880010928B0010928A00A1FDC093F5
:1000F6008A0017E015B982E179D011D11EE015B951
:1001060080E174D00CD116E115B981E16FD007D129
:1001160016E215B982E16AD002D1D8CF1124109225
:1001260089001092880010928B0010928A0018B8ED
:100136000FE00BB909E04017D8F408E04017C0F407
:1001460005E0401748F404E0401730F401E040179A
:1001560068F500E0401750F5BD2F17E015B98DE0A2
:1001660045D0DDD01EE015B983E140D0D8D00BC014
:10017600CD2F11E015B98DE039D0D1D018E015B9E1
:1001860084E134D0CCD00D2F007F069506950695D8
:10019600069510E115B9802F29D0C1D00D2F0F700B
:1001A60010E215B9802F22D0BAD090CF11E015B940
:1001B6008CE01CD0B4D018E015B985E117D0AFD0CB
:1001C6008827D7FB10E115B980F910D0A8D0882769
:1001D600D6FB10E215B980F909D0A1D0AD2FA695AE
:1001E600A695A695A695A695A69570CF27D00F930A
:1001F60000913F000F93382F307F0FE0300F3BB94F
:10020600282F2F7028B90F9100933F000F91089562
:100216000F93439502E0042311F00CEF40230F9156
:10022600789454CF0F9304E0400F0CE004230C5055
:1002360011F403EE40230F91789448CF0F9305E114
:100246008017F8F504E18017F0F503E18017E8F56B
:1002560002E18017E0F501E18017D8F500E180178B
:10026600D0F50FE08017C8F50EE08017C0F50DE059
:100276008017B8F50CE08017B0F50BE08017A8F5ED
:100286000AE08017A0F509E0801798F508E08017C6
:1002960090F507E0801788F506E0801780F505E001
:1002A600801778F504E0801770F503E0801768F58D
:1002B60002E0801760F501E0801758F500E080172E
:1002C60050F58DEE2AC087EB28C08DE026C080E869
:1002D60024C088EA22C088EB20C082EE1EC082EFCE
:1002E6001CC08CEB1AC082E718C088EF16C08EEED1
:1002F60014C08EED12C08EEF10C08EE00EC08AEFD5
:100306000CC08AED0AC08CEC08C08EE906C086EBEC
:1003160004C08CE002C08EE700C00F9108955527F7
:1003260066277727112450E061E0550F67FB50F9E7
:10033600660F550F67FB50F9660F715060405040CD
:10034600511108C0611109C071110AC000000000F6
:1003560000000895000000000000000000000000FA
:0603660000000000EACFD8
:00000001FF
