:020000020000FC
:1000000011241FBE4FEF4DBF48E04EBF21E0A0E0DE
:10001000B1E001C01D92A930B207E1F70E947B0058
:100020003FB7F8948091050190910601A0910701D6
:10003000B091080126B5A89B05C02F3F19F0019685
:10004000AA1FBB1F3FBFBA2FA92F982F8827BC011B
:10005000CD0143E0660F771F881F991F4A95D1F79E
:1000600008951F920F920FB60F9211242F933F9372
:100070008F939F93AF93BF933091000180910101C3
:1000800090910201A0910301B091040123E0220F9D
:100090002D3758F50196AA1FBB1F209300018093AE
:1000A000010190930201A0930301B0930401809198
:1000B000050190910601A0910701B09108010196F8
:1000C000AA1FBB1F8093050190930601A09307010F
:1000D000B0930801BF91AF919F918F913F912F9164
:1000E0000F900FBE0F901F90189526E8220F0196D3
:1000F000AA1FBB1FD2CFF894569A559A43EA44BD23
:1001000044E045BD7894C1E0C8BD8C2F809587BD83
:100110000E9410004B015C018AE2C82ED12CE12C18
:10012000F12C0E941000681979098A099B09683E20
:10013000734081059105A8F321E0C21AD108E108B6
:10014000F10888EE880C83E0991CAA1CBB1CC11422
:0C015000D104E104F10429F7CF5FD6CF01
:00000001FF
