:020000020000FC
:100000004FEF4DBF48E04EBFF894569A559A43EAD9
:1000100044BD44E045BD43E84093500045E640936D
:100020007C00C1E027D0822FCF5FFCCF00271127B3
:100030002227442700E013E0000F17FB00F9110FFF
:10004000000F17FB00F9110F21501040004004135E
:1000500008C0141309C024130AC0000000000000E7
:1000600008950000000000000000000000000000F3
:100070000000EACF40917A00A69A40937A0040911E
:100080007A00A699FCCF40937A00209179002BB991
:020090000895D1
:00000001FF
