:020000020000FC
:100000000C9434000C9446000C9446000C9446006A
:100010000C9446000C9446000C9446000C94460048
:100020000C9446000C9446000C9446000C94460038
:100030000C9446000C9446000C9446000C94460028
:100040000C946D000C9446000C9446000C944600F1
:100050000C9446000C9446000C9446000C94460008
:100060000C9446000C94460011241FBECFEFD8E03C
:10007000DEBFCDBF21E0A0E0B1E001C01D92A930FC
:10008000B207E1F70E94B7000C94EA000C9400005C
:100090003FB7F8948091050190910601A091070166
:1000A000B091080126B5A89B05C02F3F19F0019615
:1000B000AA1FBB1F3FBFBA2FA92F982F8827BC01AB
:1000C000CD01660F771F881F991F42E0660F771FCB
:1000D000881F991F4A95D1F708951F920F920FB666
:1000E0000F9211242F933F938F939F93AF93BF93BE
:1000F0008091010190910201A0910301B09104014E
:100100003091000123E0220F2D3758F50196AA1FE8
:10011000BB1F209300018093010190930201A093E3
:100120000301B09304018091050190910601A09113
:100130000701B09108010196AA1FBB1F809305011A
:1001400090930601A0930701B0930801BF91AF916E
:100150009F918F913F912F910F900FBE0F901F9005
:10016000189526E8220F0296AA1FBB1FD2CFF8943B
:10017000569A559A83EA84BD84E085BD7894C1E09F
:10018000C8BD8C2F809587BD0E9448004B015C0143
:1001900081E0C82ED12CE12CF12C0E944800681976
:1001A00079098A099B09683E734081059105A8F386
:1001B00021E0C21AD108E108F10888EE880C83E03A
:1001C000991CAA1CBB1CC114D104E104F10429F739
:0801D000CF5FD6CFF894FFCFFA
:00000001FF
