:020000041000EA
:1000000000B5324B212058609868022188439860DF
:10001000D860186158612E4B002199600221596106
:100020000121F02299502B49196001219960352056
:1000300000F044F80222904214D00621196600F024
:1000400034F8196E01211966002018661A6600F04E
:100050002CF8196E196E196E052000F02FF8012189
:100060000842F9D1002199601B49196000215960AB
:100070001A491B48016001219960EB211966A021F2
:10008000196600F012F800219960164914480160C1
:100090000121996001BC002800D000471248134993
:1000A000086003C880F30888084703B5996A0420EC
:1000B0000142FBD001200142F8D103BD02B5186610
:1000C0001866FFF7F2FF186E186E02BD00000240BE
:1000D000000000180000070000035F00212200005C
:1000E000F4000018222000A00001001008ED00E03C
:1000F00000000000000000000000000074B24E7A12
:1001000000200420F7010010C3010010C5010010F9
:10011000C1010010C1010010C1010010C101001097
:10012000C1010010C1010010C1010010C701001081
:10013000C1010010C1010010C9010010CB01001065
:10014000CD010010CD010010CD010010CD01001037
:10015000CD010010CD010010CD010010CD01001027
:10016000CD010010CD010010CD010010CD01001017
:10017000CD010010CD010010CD010010CD01001007
:10018000CD010010CD010010CD010010CD010010F7
:10019000CD010010CD010010CD010010CD010010E7
:1001A000CD010010CD010010CD010010CD010010D7
:1001B000CD010010CD010010CD010010CD010010C7
:1001C00000BE00BE00BE00BE00BE00BEEFF3058054
:1001D000103800BEF2EB8871504C0010744C0010C7
:1001E0003402001090A31AE700201F49086006C8D7
:1001F00081F3088810471D48006800282FD10DA4FE
:100200000ECC002902D000F012F8F9E71849194A7B
:10021000002000E001C19142FCD1174988471749ED
:1002200088471749884700BEFDE701C901C29A42C5
:10023000FBD37047744C0010C0000020A80F0020B2
:100240005C5B001000000420000004205C5B0010D8
:10025000001004200010042000000000704709482E
:1002600001F0ECFD0047000008ED00E0000000D0C8
:10027000A80F0020D81F0020B91C00103103001067
:10028000A91D00105756000006005250ABB3605332
:10029000044A001006005250861C0302144A001043
:1002A000060052505422A29D204A001005005250D0
:1002B000DE65F4685C5B0010F8B5C046044B10B511
:1002C000002B03D00349044800E000BF10BDC04626
:1002D00000000000641F00206049001010B50129D3
:1002E00004D0022916D000290AD010BD80210E4B5F
:1002F00049005A5C00689C5C013204615A54F4E77E
:10030000094B00680131FF315A5C00699854013291
:100310005A54EAE780220021034B520003489954C3
:1003200001F052FFE1E7C046D019002060490010FB
:1003300070B501F0D1FF042000F060F80321042023
:1003400000F032F800220121042000F045F80520D9
:1003500000F054F80321052000F026F800220121C6
:10036000052000F039F80D4C0D49200004F084F907
:1003700080252000D02408210A4A04F0C5F924066B
:100380001920AD0400F03AF86562FA20656100F0CA
:1003900005FFFA20A56100F001FFF6E7780F0020C5
:1003A000A0860100DD020010094A10B594464024E1
:1003B000830063441A68C000624080341440802285
:1003C000520113431C60034B9C466044416010BDC6
:1003D00004C0014000400140074B80009C4660443F
:1003E0000368C90092000A435A400C231A40802334
:1003F0005B0103431A60704704C001400123D0220F
:100400008340120693629361094A40219446830017
:1004100063441A68C0004A40803111408022520172
:1004200013431960034B9C460523604443607047A7
:1004300004C0014000400140024B18688007C00F13
:100440007047C04600C0064070B5EFF3108C72B61E
:100450000D4D2B68002BFCD0BFF35F8F0724CB081A
:10046000C618C05C01230C40A3401C00044003429A
:1004700007D118433070BFF35F8F2C608CF3108866
:1004800070BD100001F094FC2C0100D0F8B5474677
:10049000CE46884680B5EFF3108C72B6214D2C689D
:1004A000002CFCD0BFF35F8F9A422CD8D4080727CA
:1004B000055D061901241740BC402C421FD00721BE
:1004C0000127894609E0D408055D06194C46390024
:1004D0001440A1400C00294211D001329342F2D2C3
:1004E00001204042BFF35F8F00220E4B1A608CF355
:1004F000108800280FDBC0BCB946B046F8BD2543C4
:1005000010003570EEE7BFF35F8F00232B608CF394
:100510001088012040424346002BECD0089801F09F
:1005200047FCC0462C0100D00021044B044ABFF315
:100530005F8F02C39342FAD17047C046000100D0DA
:10054000800100D0044A1078431CDBB2172B00D97D
:10055000102313707047C046900E002010B5064B54
:10056000064C82B00100009318221F232000FFF7E1
:100570008DFF02B010BDC0466C490010CC190020A0
:1005800001238340002904D0034A1360034A136007
:100590007047034A1360FBE780E200E000E100E0FF
:1005A00080E100E001238340014A13607047C046A8
:1005B00000E200E0084B10309B688000C358002B1D
:1005C00007D0064A00209B1A2F229A424041C0B20F
:1005D00070470020FCE7C04600ED00E0940E0020CC
:1005E000024B10309B688000C058704700ED00E05F
:1005F00070B50D00EFF3108672B60F4A1368002B2A
:10060000FCD0BFF35F8F0D4B10309B6884001B59EB
:100610000B4A934203D09D4201D001F0E1FB074B0E
:100620009B681D51BFF35F8FBFF35F8F0022024BAA
:100630001A6086F3108870BD240100D000ED00E040
:10064000CD010010F0B54E464546DE465746E0B5B2
:1006500083B0060000919046EFF3108B72B6654AA6
:100660001368002BFCD0BFF35F8F0025624B5D57F2
:100670009A46002D00DA79E052466B005F4C5F1914
:10068000BF000193E31999469B79103613705C4BB8
:10069000B6009B6899590B1B2F2B33D9594B9942A4
:1006A00000D07CE0019B02379C46574B6544AD006F
:1006B0006353564BE719043BDB1B554A1B055B0D87
:1006C000651913436B80534B0121AB80FF23AB7142
:1006D0004346EB71009BAB604B460B431900484B04
:1006E0009B689951BFF35F8FBFF35F8F0022414B2F
:1006F0001A608BF3108803B0F0BCBB46B246A94623
:10070000A046F0BD01200A008243D379434549D970
:10071000BC464746884607E05800C01880002018AD
:10072000C179B94228D902000623D356002BF3DA47
:100730009A46131D9C464146B846374F4846634685
:100740000438C01A0005324B400D1843019B9080BD
:1007500095715A1953469200A418A37143462F4A23
:10076000E371009B2260A780A360B8E701F038FB2B
:10077000002553465D577FE79A464146131DB8460C
:1007800067469C469088043740050015E719604489
:10079000C01BE0270005400D3F020743CEE701F0F4
:1007A0001FFB7FE713001E491B1B5B415943090DCB
:1007B000154BBD1CE353154B6519043B5B1B1B0517
:1007C000134D5B0D2B43AC464D466B80654604379D
:1007D000131FE719DB1B1B055B0D1D434B4699716E
:1007E0004146D97100999D80996049460B4B014360
:1007F000136074E7240100D0D11F0020940E002064
:1008000000ED00E0CD01001000A1FFFFC40E0020AC
:1008100000E0FFFF01BDFFFF01BD00000148804770
:10082000AAAA0000F0B5DE4657464E464546E0B55A
:100830000C0083B0EFF3108872B65D4A1368002B8A
:10084000FCD0BFF35F8F5B4B5B499A6803001033AA
:100850009F00D5598D4239D0A5424AD0574EAA1B88
:100860002F2A33D801229246824091464846544A64
:100870001268104001904846524A1060BFF35F8FE3
:10088000EFF305829346002A35D0934201D001F060
:10089000A7FA2A0053469A439068844208D175E02B
:1008A0004B005B189B00F3189868A04234D01A00E4
:1008B000062151560029F3DA844253D0019B002BC4
:1008C00026D04A46404B1A603D4B1A60394B9B6814
:1008D000DD51BFF35F8FBFF35F8F0022344B1A608F
:1008E00088F3108803B0F0BCBB46B246A946A046C8
:1008F000F0BD0D00EAE72A0053469A43906884420F
:10090000D6D1062010561300002809DA0D0031E078
:100910004A462C4B1A60D9E706201856002822DBDD
:1009200042001118890074188A46A1689960E1791B
:10093000D971062161569971002925DBA488F11A25
:100940006405241554440919E0240905490D2402BD
:100950002143998013181D4A9B001178F31899714F
:100960001070ABE713005946002914D1FF31917183
:100970001749918015490A789A71164A9B1B5B4169
:100980005A43120D0A7099E71349E2E70620105600
:1009900013000028C4DA114A1149D21A083A500249
:1009A000400D014399800F4952080A43DA8085E7D8
:1009B000240100D000ED00E0CD010010940E0020D5
:1009C00000E100E080E100E080E200E0D11F0020D3
:1009D00001BDFFFFAAAA000001BD0000CE0E00204D
:1009E00000F0FFFF00F8FFFF70B5EFF30581012471
:1009F0000443EFF3108C72B6214A1368002BFCD02D
:100A0000BFF35F8F1F4B05001F4AED1A6D416A430C
:100A1000120D1E4D8900AE6852B27658A6421CD007
:100A20000621595691421CD012215956914222D08A
:100A30001E215956914220D02A2159560324914211
:100A400010D0134B19781A708171BFF35F8F002299
:100A50000B4B1A608CF3108870BDAB680D4C5C506A
:100A6000EFE700246100091989005B18FF219971E3
:100A700009499980E5E70124F4E70224F2E7C0463A
:100A8000240100D0940E0020AAAA000000ED00E08E
:100A9000D11F0020CD01001001BDFFFF054B064A0C
:100AA0001360064A136053609360D360136153610F
:100AB000936170478080808000E400E004E400E0FF
:100AC00010B5084B084C82B00100009300220523AA
:100AD0002000FFF7DBFC002801DB1F23181A02B0FF
:100AE00010BDC04688490010D61F0020024B9C460E
:100AF00061448900016070474000003410B5040073
:100B0000FFF720FD01002000FFF7F0FFFF23237116
:100B1000BFF35F8F10BDC04610B50400FFF712FD94
:100B200001002000FFF7E2FFFF23A380BFF35F8FE8
:100B300010BDC04610B504000120FFF70FFD034BA8
:100B4000C3189B002360BFF35F8F10BD40000034CB
:100B5000034B9C46614489000160BFF35F8F70477F
:100B60004000003483680B4810B5844661446244F9
:100B70001201090159189B185C684A6801209442C7
:100B800001D802D00020C0B210BD1A680B689A428A
:100B9000F9D8F7E7FFFFFF0F0A4B1968EFF3108052
:100BA00072B60A68002AFCD0BFF35F8F1B68BFF3E0
:100BB0005F8F00221A6080F3108840BF0020002160
:100BC0007047C046A01F0020F8B5574645464E4620
:100BD000DE46E0B598460CAB1C780DAB1B780700E1
:100BE00091469A460568002C5AD1AC7B002C3BD02C
:100BF000660029683619033E89194B78AB73002BC0
:100C000000D1EB7300238B704B700B702B4BE218F1
:100C1000BB6812019B184A461A6042465A600A9AFB
:100C20009A600B9ADA6000238B704B700B706B7BB1
:100C30009B46002B27D022006B685946A86898472E
:100C40005B465B005B442A68033B002812D0584691
:100C50009619B070D118D35C002B00D073705B462E
:100C60000C706B735C450FD0F0BCBB46B246A94616
:100C7000A046F8BDD3189C709119925D002A00D04F
:100C80005A705B460B706C734A464346387D00F0E1
:100C90009BFB051E0AD10E9B002BE5D01D70E3E7E0
:100CA000660029683619033E8919AFE75346002BC1
:100CB000F1D12100386800F0A5FDECE7FFFFFF0F40
:100CC000F0B5DE4657464E4645460023E0B58BB0AC
:100CD0000893674B8200D45800239B46099000F08C
:100CE00013FB02000B006068EFF3108A72B65646E1
:100CF00001680029FCD0B246BFF35F8F21684F7BAB
:100D00008C46002F2ED0A5685A49A94679180901AA
:100D1000894449460868496805000E00AD1A9E419D
:100D2000002E5FDD02000B00099800F04DFB002350
:100D30000022994600230692079300239846636891
:100D4000BFF35F8F5A461A608AF310884346002B20
:100D500012D10028C3D10BB0F0BCBB46B246A946A5
:100D6000A046F0BD00230022994600230692079377
:100D7000002300209846E2E7089B494618023843C2
:100D8000C047626805000E00EFF3108A72B6136860
:100D9000002BFCD0BFF35F8F002E40DB2B003343D2
:100DA00002D02369002B55D12368D97B002905D0B7
:100DB0001A68480041185218033A57709A7B002A63
:100DC00000D19F73DF73E268013FD35D0133D355D8
:100DD0005B4623616368BFF35F8F5A461A608AF3EC
:100DE00010887CE7002E01D1002D9BD100216046A8
:100DF00000F086FC4B461A685B68069207934B46E8
:100E00009B6898464B46DB689946E368DB19013BD3
:100E10001B7808931B020343236100208FE723699B
:100E2000002BC1D0069A079B8021521BB3410906B3
:100E30008B4202D30122104B524200210491013116
:100E40000391494601914146200002970091FFF726
:100E5000BBFEBDE700F058FA2A00330012184B41E0
:100E6000802109068B42E8D30122034B5242E4E77A
:100E7000841F0020FFFFFF0FFFFFFF7F10B5144C02
:100E80006368002B04D00A211248FFF72FFE10BD23
:100E90002300114A1021206800F04EFB032000F0CF
:100EA00027FA032000F0FEFA03200C4900F046FA6E
:100EB000FFF748FB0A4B9C4603232375D0231B06F0
:100EC0001B6860446375074B80006060DC60DAE794
:100ED000DC0E0020A01F0020650B0010C10C0010CC
:100EE00040000034841F002000487047DC0E0020C2
:100EF000F0B557464E464546DE46E0B585B001930F
:100F000010AB1B780600039300239A469846009284
:100F10007268EFF3108B72B61368002BFCD0BFF32E
:100F20005F8F3568AC7B002C00D16DE067002B68CB
:100F30003F19033FDB195A78AA73002A00D1EA73DC
:100F4000484AA118B2680901521800980199106026
:100F500051600E9991600F99D16042469A705A7013
:100F60001A706B7B9946002B6BD022006B68494648
:100F7000A86898474B465B004B442A68033B00280F
:100F800056D04846D719B870D118D35C002B00D082
:100F90007B704B460C706B734C4553D0F3681B1938
:100FA000013B18787368BFF35F8F42461A608BF37A
:100FB00010885346002B08D10002204305B0F0BC36
:100FC000BB46B246A946A046F0BD039B002B46D0C7
:100FD0000E9B00200F99984703000B433FD004005D
:100FE0000D1E1ADA009A019B121BAB41009201936D
:100FF00080221206934204D301231B4C5B420093D0
:101000000194039B9A4683E77368BFF35F8F1C606C
:101010008BF3108801204042D0E700F075F9802260
:10102000001969411206009001919142E9D3E3E76A
:10103000D3189C70D119D25D002A00D05A704B464B
:101040000B706C73307D009A019B00F0BDF98246F5
:101050000028A3D02100306800F0D4FB9EE70020D8
:10106000ACE7C046FFFFFF0FFFFFFF7FF8B50B00A7
:1010700004004168EFF3108572B60A68002AFCD0BC
:10108000BFF35F8FFF222068D9B2467B1A408E42A1
:1010900007D006685700BF18F619033EB678002E31
:1010A00010D0E6681B0AB218013A1278DBB29A42F5
:1010B0000DD000206368BFF35F8F00221A6085F3B4
:1010C0001088F8BD22699A42F3D12661F1E700F059
:1010D00099FBEFE7407D7047F0B504000D00062650
:1010E0007642F717C64636196F4100B584B08F4275
:1010F00014D811D000F008F932003B00121A8B41CD
:10110000002B15DC002B3ED02000290000F006F952
:1011100004B080BCB846F0BD8642EBD9002600275B
:1011200000F0F2F832003B00121A8B41002BE9DD8F
:10113000002302930193154B3200009314483B00A7
:10114000FFF7D6FE0028DFDB00239846BC46114A95
:10115000114F7B6A9C4504D8B96AB142D4D29C45F0
:10116000D2D11168EFF3108072B60B68002BFCD05F
:10117000BFF35F8F1368BFF35F8F4146196080F341
:10118000108820BFE5E7002ABED0D1E7990B0010F8
:10119000DC0E0020A01F00200040054070B50600B6
:1011A00000F0B2F8FA2204000D0000233000002104
:1011B000920000F0FDFE8023001969411B06994250
:1011C00002D3012002494042FFF786FF70BDC046AE
:1011D000FFFFFF7F70B5EFF3058305000C0084B0BF
:1011E000002B0FD0104A0020536AA34203D3926A07
:1011F0000130AA4201D304B070BD1B1B5A1E93419B
:10120000D8B2F8E7094E02930193094B020000930C
:1012100030000B00FFF76CFE011EE3DD20BF300045
:10122000FFF724FFDEE7C04600400540DC0E00204B
:10123000990B0010F0B5EFF30582D6464F464646AF
:101240001000C0B51038EFF3108872B6214C236837
:10125000002BFCD0BFF35F8F0123190081401E4D8E
:101260001F006963AA461D4D29601D4D2E78AC46AE
:101270003500C5402F402B4215D053465F6A194BAD
:101280008500EB589F4218D36246174B8E43EB58AC
:101290001670BFF35F8F0022226088F31088002B46
:1012A00006D0984704E0BFF35F8F276088F310886B
:1012B000E0BCBA46B146A846F0BD0C4B92009C4635
:1012C000624413681360BFF35F8F0023236088F3C9
:1012D0001088EDE7280100D0004005403C70054033
:1012E000D51F0020AC1F0020B4180020D03F0540BF
:1012F00010B5034B01001800024AFFF7A5F810BD16
:10130000D01F0020A4490010034B596A0A00986AB4
:10131000596A8A42FAD1704700400540064A536A2A
:101320009942FCD807D1044B02E05A6A914202D19B
:101330009A6A8242F9D370470040054070B50400B4
:101340000D00EFF3108672B61A4A1368002BFCD01A
:10135000BFF35F8F002D1BD02000FFF741F9164926
:1013600081420AD02000FFF743F901212000FFF756
:1013700007F90123A340114A1360114BA400E55063
:10138000BFF35F8F00220B4B1A6086F3108870BD8D
:101390000121A1400A4BA200D5500A4B20001A7827
:1013A0008A4305491A70FFF73DFA00212000FFF734
:1013B000E7F8E5E7280100D0351200103860054055
:1013C000B4180020D51F0020F0B54F46D64646463B
:1013D000C0B507002E4C616A0D00A66A616AA94279
:1013E000FAD18B4208D805D00120E0BCBA46B146FC
:1013F000A846F0BDB242F7D9EFF3108A72B625487D
:1014000001680029FCD0BFF35F8F0125BD40224950
:101410001F4C8846097889462943C9B28C46414603
:1014200060460870391D890065630A511B49B80080
:101430004350216A0020294219D0616A0800A66A37
:10144000616A8142FAD18B4219D801D1B24216D8D1
:10145000CC450BD00E4B1F221D625D6301233A4029
:1014600093400F4A136043464A461A700120BFF367
:101470005F8F0022074B1A608AF31088B5E70020BF
:10148000BFF35F8F0022034B1A608AF31088ACE72A
:1014900000400540280100D0D51F0020AC1F0020CF
:1014A00080E200E0EFF3108C72B60A490B68002B63
:1014B000FCD0BFF35F8F01238340074A07481362C4
:1014C00002789A430270BFF35F8F00230B608CF3A6
:1014D00010887047280100D000400540D51F00202B
:1014E00070B506000D00140000291DD0002A12D08E
:1014F00073688068984762006B0012195B19316845
:10150000033A033B002808D08A189570C818CB5CB2
:10151000002B0BD10470280070BDCB189C7088186C
:101520008A5C002A05D105702000F5E7537004702D
:10153000F1E75A700570F7E710B583600023CCB26D
:1015400043730133426004738373C4730068421CA5
:10155000012C05D90133DBB2137003329C42F9D15F
:10156000FF230B405A00D318C018002303384370E0
:1015700010BDC04670B505000C1E07D063000168A1
:101580001B19033BCB185A78002A01D1200070BDEB
:10159000500080180338091800204E784870210048
:1015A00058702800FFF79CFF310004002800FFF767
:1015B000E1FF0600002C20D00028E7D032002100F7
:1015C0006B68A86898477200630092191B19296814
:1015D000033A033B002808D08A189470C818CB5CE3
:1015E000002B00D053700670D0E7CB189E7088187F
:1015F0008A5C002A00D05A7004703400C6E7C046E6
:10160000F0B557464546DE464E46E0B50D006F0044
:1016100001687F19033F0400C85D83B00192CA19B5
:10162000002850D043001B18033BCB185E78B4460B
:10163000002E1AD1019E002E42D0E67B002E04D04F
:1016400073009B19CB18033B5D70A37B002B00D16B
:10165000A573E57300282FD10023537003B0F0BCAD
:10166000BB46B246A946A046F0BD72006244033AAA
:101670008A18517888460021517089465970320085
:1016800001002000FFF72CFF43468246002B07D0C5
:101690005B0021684344033BCB185A78002A16D1DB
:1016A000424651462000FFF71BFF2168019BCA19E3
:1016B000002BC2D10028CFD043001B18033BCB180E
:1016C00000219970C8E7019B002BB6D1C4E75000F8
:1016D000801803380918487883464846487058707F
:1016E00041462000FFF7FCFE594680462000FFF7E8
:1016F00041FF414602002000FFF7F2FE8046CFE79F
:10170000F0B557464546DE464E46E0B583B00191FA
:10171000457B04006F0000687F19033FC15DC2195B
:10172000002952D04B005B18033BC3185E78B446C7
:10173000002E1CD1019E002E44D0E67B002E04D04A
:1017400073009B19C318033B5D70A37B002B00D172
:10175000A573E573002931D100232800537061730C
:1017600003B0F0BCBB46B246A946A046F0BD72002D
:101770006244033A821850788046002050708146B7
:10178000587032002000FFF7ABFE43468246002B24
:1017900007D05B0021684344033BCB185A78002AEA
:1017A00017D1424651462000FFF79AFE019B0100E7
:1017B0002068C219002BC0D10029CDD04B005B1886
:1017C000033BC31800209870C6E7019B002BB4D1DF
:1017D000C2E7500080180338091848788346484605
:1017E0004870587041462000FFF77AFE59468046FF
:1017F0002000FFF7BFFE414602002000FFF770FE09
:101800008046CEE770B5050000292CD0437B8B4283
:101810002ED04C0000686418033C0419A278002AFA
:1018200021D053009B18033BC25CC6188A4202D1E8
:101830001BE0002A08D053009B18033BC3185A78BA
:101840008A42F6D162785A70002301222800A370E0
:101850006370FFF7D5FE697B02002800FFF740FEAA
:101860006873012000E0002070BD63783370EBE7FF
:1018700001221900FFF7C4FEF2E7C04610B50C20A4
:1018800082B000F0AFF9FEF7D7FD002810D0864BEC
:1018900086488649864A186059609860D960186100
:1018A00059619861D961186259625A6202B010BDDB
:1018B000804CA06700F0ECF901227F4B1A60636C4A
:1018C000012BFCD103227D4B1A607A4A936B012BCA
:1018D000FCD1013301217A4A7A480093043300F0A5
:1018E0002DF90523784A00930121784800F026F964
:1018F000774B5A68FF2A02D8802252005A60802211
:101900006E4B694C12011A602169002905D060698B
:1019100000F0C6FA01300138FDD1E0226C4B6D4871
:1019200019680A40026002221968514001320A40D7
:10193000042102609A681142FCD08021664A0901A4
:101940001160802252005A60644B2361644B5968D5
:10195000FF2900D85A6003220121574B1A60604AC0
:1019600093681942FCD0E023106803405D4803608F
:10197000126803234A4002211340594A03609368C6
:101980001942FCD08021584B090119608021574B26
:10199000490051606361564B5A68FF2A00D859606C
:1019A0008022544B12011A60E169002905D0606958
:1019B00000F076FA01300138FDD1E0234C4A11687D
:1019C0000B404D490B6080214C4B0901196080216F
:1019D000364B49005160E361494B5A68FF2A00D8F1
:1019E00059608022474B12011A60216A002905D0F4
:1019F000606900F055FA01300138FDD1E023404A1A
:101A000011680B4040490B608021404B090119606F
:101A100080235B0053608022244BD20223623C4B24
:101A20005968914200D25A6080223A4B12011A60E2
:101A3000616A002905D0606900F032FA013001388E
:101A4000FDD1E023324A11680B4033490B608021FD
:101A5000324B090119608023DB025360144B63622F
:101A60002F4B5A68FF2A02D8802252005A608022E7
:101A70002C4B12011A60A169002905D0606900F0A1
:101A80000FFA01300138FDD1E023254A11680B40DF
:101A900025490B608021254B0901196080235B00DB
:101AA0005360124BA36101E7A80F0020006CDC0219
:101AB0001BB70000008000403CB0004030B0004048
:101AC000002F685900800240008C864700C0024009
:101AD000308000403090004030A00040001BB70034
:101AE0003C8000403C9000403CA0004040597307BF
:101AF0005480004054B000405490004054A0004036
:101B00006080004060B000406090004060A00040F5
:101B10006C8000406CB000406C9000406CA00040B5
:101B20004880004048B000404890004048A0004035
:101B3000014B8000C0587047A80F0020F8B5040082
:101B40000C2017001D000E0000F0AAF943011B1A1B
:101B50009901C91AC90009188901380000F0A0F9D3
:101B6000069B29041B0319432368002B20DB194B18
:101B7000194DE3185A4253418022520194461B03E7
:101B8000164A63441360164A13601F00AA689743FD
:101B9000FBD1C023221D9B01134321222660A0609C
:101BA0001A602268002AFCDA0822E1601A60F8BD97
:101BB0003F2322681340B342D9D1A3681B051B0DF4
:101BC0008342D4D1EE22E368D20213408B42CED1BD
:101BD000EDE7C0460040FDBF00C0004000E000400F
:101BE00000F000408023024A9B000343D362704709
:101BF0000080054010B580241C4BE4051C600028C3
:101C00001AD001231A4C18431A4BDC611A4C444079
:101C10001C62596298628021144BC90519601748EB
:101C200017490860E021C9041960002A07D1802201
:101C3000144B12061A6010BD0E4BD861EBE753012E
:101C40009B1A9B009A18802312015B049A4209D2C6
:101C500013000D490B60074B5A608022094BD205D7
:101C60001A60E8E7094B1A00F3E7C04600B00540E8
:101C7000D3C007B0008005402D3FF84FFCFF0100A6
:101C80000820014000A005405C1F0020FFFFFF006E
:101C9000AA23064A1B0113602F230549D360054B75
:101CA00019605368002BFCDA7047C04600400240C0
:101CB00000B0FA00006002402B4B2C4A70B51A604D
:101CC0002B4A2C4B2C491A6014008B689C43FBD187
:101CD0002A4D2B4EB54208D2013E761BB60808CDE0
:101CE000984723000134B342F9D1FFF7C7FD254AD5
:101CF000204B1A60204A9368DB43DB01DD09002B8F
:101D0000F9D14022204B214E214C9A675A671A671D
:101D1000DA66B44208D2236820000834002B1FD0B2
:101D2000FEF7FAFEB442F6D31A4C1B4EC022B1683D
:101D3000200000F0ADF9B460FEF7F6FBFEF7AEFE52
:101D4000FFF79CF8154C164EB44208D2013E361BE4
:101D5000B60808CC98472B0001359E42F9D170BDDA
:101D6000FEF7CCFED5E7C04600E00040BFCDFBFE4D
:101D7000FE7F3C0000F0004000C000408C0F0020BF
:101D80009C0F0020FFFFFF0100F001408C0F00209E
:101D9000840F00200000002000ED00E09C0F0020D8
:101DA000A80F002000BEFDE710B5FFF7FBFFC046FF
:101DB0000FB400B5084883B000F006FA049B002B6E
:101DC00007D005A91800019100F018F8034800F0A9
:101DD000FBF90120FFF7E6FFC8490010D8490010C1
:101DE00010B50148FFF7E4FFDC49001010B50028EA
:101DF00000D110BD00F09CF9FBE7C04610B5094AC0
:101E00000300146884B0002C08D001220091064819
:101E1000524203A9A047012004B010BD00F0D4F93C
:101E20000020F9E7581F0020ED1D00100148042193
:101E3000014B1847100F00205D1E0010142310B531
:101E40000100188804331B88984710BD162310B56D
:101E50000100188802331B88984710BDF8B5474623
:101E6000CE4680B50F1E19D01423994604330400C2
:101E70000025012698464B461888434621681B8852
:101E8000984701C4431E9841013540420640AF4285
:101E9000F1D13000C0BCB946B046F8BD0126F8E724
:101EA000114A936F9B0813D210665166002905D022
:101EB000FFE7FFE7FFE7516F106F704704B5002899
:101EC00001D00020C04302F00BFD002104BDC0463C
:101ED000F0B5146E556E576F166FFFF7E5FF146679
:101EE000556657671667F0BD000000D0132370B524
:101EF0001D78012D15D010DD1D48FFF7A7FF1D4CE3
:101F000001008022200000F0C3F8022D2DD01A48D5
:101F1000FFF794FF194B186070BD194B154CA36463
:101F2000F5E7174B134C23606360A360E360236104
:101F30006361A361E36123626362A362E36223637B
:101F40006363A363E36323646364A364E36423655B
:101F50006365A365E36523666366A366E36623673B
:101F60006367A367E367A364D1E7054BA364CEE788
:101F700053440000D81000204C3300009C1F002068
:101F8000851F001007B5604601880A0A0230DF2A63
:101F9000FAD1C9B2820804D30288408800041043F1
:101FA00000E00068014A5050039007BDD81000209F
:101FB00051434343C9188C46110C83B24B4310B4B0
:101FC000040C614392B280B2504362431C041B0C68
:101FD000001910BC59411304120CC018514161443E
:101FE00070470000132310B512481C78FFF72EFF2E
:101FF0000100012C0AD003DD80220F4800F048F8D0
:102000000E48FFF71BFF0E4B186010BD0A4C542200
:10201000200000F03DF80B4B6365A365E365236684
:102020006366A366E36623676367A367E367236268
:10203000E361E5E753460000D81100204C3300006F
:102040009C1F00204920001007B5604601880A0A3D
:102050000230DF2AFAD1C9B2820804D3028840884C
:102060000004104300E00068014A5050039007BD8F
:10207000D811002001480421014B1847200F0020EF
:102080005D1E0010014B1B6818470000200F002048
:10209000014B5B6818470000200F0020F0B5C646D2
:1020A00000B5437D07000D001600002B38D0002A34
:1020B0002EDD00216A1E90466A5C037D4C1C0020C8
:1020C0000A2A0CD0A64216D043461B5D21000D3BC8
:1020D0005A4253416A5CDBB24C1C0A2AF2D1002BF3
:1020E000F0D1814217DC022110483B689847A64294
:1020F00007D02000E8E7864203DD311A3B68281844
:102100009847AD19013D2B780D3B5A4253413B7521
:1021100080BCB846F0BD091A3B6828189847E2E72A
:102120000368110028009847F2E7C0465C4A001097
:10213000F0B5CE46474680B583B06B460600DD1D40
:102140002870FFF7E1F800231A4A12184B4180214A
:1021500009068B4202D30122174B5242174908004D
:10216000884602F0DDFB164B81461C68002C14D01B
:10217000144F02E02469002C0FD02368002BF9D003
:102180003B68002B01D0A342F4D12000012229009A
:10219000FFF784FF2469002CEFD14B46002B05D1BB
:1021A000300003B0C0BCB946B046F0BD404602F0B6
:1021B00087FBF5E740420F00FFFFFF7F840F002001
:1021C0003C1B0020441B0020F0B5DE4657464E461F
:1021D0004546E0B585B0070002F0DAFA0600FFF7E1
:1021E00093F800232B4A12184B41802109068B4299
:1021F00002D30122284B5242284908008B4602F0A4
:102200008FFB274B01901C689A46002C3BD0254B36
:10221000984602ABDD1D0A23994602E02469002C92
:1022200017D02368002BF9D043461B68002B01D040
:10223000A342F3D1200032003900FFF72FFF4B46B5
:102240002000012229002B70FFF728FF2469002CB1
:10225000E7D1019B002B18D153461C68002C06D0F7
:102260006368002B0BD098472469002CF8D130000C
:1022700005B0F0BCBB46B246A946A046F0BD2469F5
:10228000002CEDD1F3E70028F1D0584602F018FBFE
:10229000E2E7C04640420F00FFFFFF7F840F0020AF
:1022A0003C1B0020441B00200A4A1368002B05D168
:1022B0000CE01A001B691032002B07D09842F8D1AD
:1022C000002902D103691360016170470029FCD025
:1022D0001060FAE73C1B002010B500F0D9F910BDE2
:1022E0007047C0460022014B1A707047D21F002071
:1022F0004B790020FF2B0BD18B79002B08D1CB79A8
:10230000012B05D1082A03D9024B8A7809301A70AB
:102310007047C046D21F00200120704770B50129C8
:1023200001D0012070BD13495379107909781B023F
:10233000034300209942F5D15378012B08D0022B9A
:10234000F0D1002064220021FFF754FC0120E9E7CE
:102350009478D278050012021443D20502D5620A9D
:1023600093401D000448FFF769FD7F2103002140D1
:1023700028009847D21F0020554200000123037017
:1023800000487047604A00104B780A781B021343DC
:102390008A7810B512041A43CB781B061343962291
:1023A000D200934200D010BD0348FFF747FD002143
:1023B000030008009847C04655420000024B1860D1
:1023C000024B19607047C046C4190020C81900208C
:1023D00010B5024B1878FEF7E5F810BDD31F0020AA
:1023E000114B70B51A68002A1AD0EFF3108172B63B
:1023F00010680028FCD0BFF35F8F00200B4A5960A3
:1024000010701B68BFF35F8F186081F31088002481
:102410000025074B1878FEF7C5F82900200070BD8D
:10242000FA240025A400F4E77C1F0020D41F00201C
:10243000D31F002070B5040000200E0001F010FB37
:10244000002836D0002001F023FB002831D0FEF711
:102450005BFF0023184A12184B41802109068B426A
:1024600016D2164D280002F05BFA002821D0002079
:1024700001F0F6FA00280FD101200021404200F0BF
:10248000C1FC03246442280002F01AFA200070BD47
:1024900001220B4B5242E4E7002001F0F9FA002838
:1024A000EAD021003200002001F0FEFA041EEAD139
:1024B000E7E703246442E9E740420F00A41F00203D
:1024C000FFFFFF7FF8B5DE46574680B505000C00DC
:1024D000FEF71AFF0023374A12184B4180210906E4
:1024E0008B4202D30122344B5242344908008A46BF
:1024F00002F016FA002803D1C0BCBB46B246F8BDB4
:10250000002001F0ADFA00284AD00026002C43DD5F
:102510002B4B9B4614E0A919002001F039FB070062
:1025200001200021404200F06DFC002001F0F4FA8F
:10253000FEF7EAFE224BF61918605960B4422BDD13
:10254000002001F03FFBA71B0200B84200DD3A006B
:10255000002AE0D101200021404200F053FC00207D
:1025600001F0DAFA002001F07BFA002814D00020F4
:1025700001F028FB0028E1D1FEF7C6FE5B460F0004
:102580001A685B68002184460E4812184B419F422E
:1025900002D8D3D19445D1D9504602F091F9ABE796
:1025A00000200021064B18605960504602F088F95F
:1025B000A2E7C04640420F00FFFFFF7FA41F00209C
:1025C000D010002020A1070010B5244C84B00021B9
:1025D000200002F08DF900281CD1214B1A68002A36
:1025E00016D0EFF3108172B610680028FCD0BFF34C
:1025F0005F8F01241B48596002781B68D2B20470B7
:10260000BFF35F8F0020186081F31088002A0AD082
:1026100004B010BD01200021404200F0F3FB200077
:1026200002F04EF9F4E7FEF75FFC0400FEF76CFEE3
:10263000FA220023920012184B41802109068B4296
:1026400002D30122084B5242012102910021019143
:10265000064920000091FEF74BFCD9E7A41F00209B
:102660007C1F0020D41F0020FFFFFF7FE12300100C
:10267000054B10B51868002804D0044B00221968D7
:1026800001F05EF810BDC046C4190020C819002032
:10269000D02310B51B0684B01C68FEF725FCFEF79E
:1026A00019FDA04202D0002004B010BD274B1B78BA
:1026B00001F06AFC2648FEF721FA0120FEF700FA35
:1026C000FF23244C244920701840FDF791FF207807
:1026D0000121FDF755FF0520FDF76CFF002827D1EC
:1026E000FEF702FC0400FEF70FFEFA220023920020
:1026F00012184B41802109068B4202D30122174B4D
:1027000052420121029100210191154920000091BE
:10271000FEF7EEFB0822040000211248FFF7B2FC8E
:10272000002CC0DB10480121FFF7BEFD0120BBE7F4
:1027300000220E490520FDF785FFFDF703FF094B39
:1027400001001800FEF704FAECE7C046704C0010D8
:10275000A41F0020D31F0020C9250010FFFFFF7F0A
:10276000E12300107C1F0020300F0020D123001037
:1027700000487047304B001000487047DC4A00109A
:1027800010B5040017480378002B20D0002C06D188
:10279000154B16484380063BFF3B038010BD052CBC
:1027A00019D8134BA400E05812490123013804E062
:1027B00001330A800231142B0FD0C25C002AF7D1FA
:1027C000C022DBB25B00920008481343E5E7112109
:1027D00000F01AF8DAE70020E0E7CA2303489B007C
:1027E000DBE7C046BC1F002009040000141B0020CA
:1027F000C44A0010161B002010B5024800F0D8F89B
:1028000010BDC046941F002030B54B1E012900D1D9
:10281000A7E0664A11780D092C0030349F2900D9B1
:10282000A2E00470012B00D1BEE00F2114782140FA
:102830000C003034092900D998E04470022B00D1F3
:10284000B2E054782509290030319F2C00D990E05E
:102850008170032B00D1A7E00F2121400C00303400
:10286000092900D987E0C470042B00D19CE094783A
:102870002509290030319F2C00D97FE00171052BFB
:1028800000D191E00F2121400C003034092900D9FA
:1028900076E04471062B00D186E0D4782509290022
:1028A00030319F2C00D96EE08171072B00D17BE085
:1028B0000F2121400C003034092966D8C471082B3F
:1028C00000D171E014792509290030319F2C5FD89F
:1028D0000172092B68D00F2121400C0030340929E6
:1028E00058D844720A2B5FD0547925092900303119
:1028F0009F2C52D881720B2B56D00F2121400C00F7
:10290000303409294BD8C4720C2B4DD09479250949
:10291000290030319F2C00D9073101730D2B43D092
:102920000F2121400C003034092901D937310C0026
:1029300044730E2B38D0D1790C09220030329F29F4
:1029400000D9073282730F2B2ED00F220A401100BC
:102950003731092A01D830321100C173102B23D02E
:1029600010300023037030BD07345AE737310C00B4
:1029700063E707316CE737310C0074E707317DE717
:1029800037310C0085E707318EE737310C0095E7CA
:1029900007319DE737310C00A3E70731AAE737314C
:1029A0000C00C4720C2BB1D1C018DAE7941F0020C0
:1029B00030B5002589B004000922002101A8009546
:1029C000FFF760FB0922002105A80495FFF75AFBD9
:1029D0004B236A466846137004A90D2201F068FF74
:1029E0001521082220006944FFF752FB09B030BDD1
:1029F00010B501210520FDF7C3FD10BD10B5002263
:102A00000021024800F058F910BDC046681B0020A4
:102A10008022024B5202DA647047C04600201150F7
:102A2000F0B5C64600B5060000F020F90C231B4D9A
:102A3000FF22AB6705201A49FDF704FE40239846A4
:102A4000184C402200212000FFF71CFB43460127C1
:102A5000238321210023144A6770A260136063540A
:102A60005F31618441462187053963540F4A10491B
:102A70006360E260A1620B606362E26201F068FF82
:102A800080239B052F64EB6490230A4A3000EA50B0
:102A9000FFF7BEFF80BCB846F0BDC0460000115035
:102AA0009D040020481B002084001050000110509D
:102AB0008000105010D001000B785B0602D14B78DB
:102AC000052B00D070478A78014B1A60FAE7C046A0
:102AD00000001150F0B5C64600B5CC7888780A7968
:102AE0004B797F21A40701401B02C50913434F0006
:102AF000A20F1400324E7A195201B21890700120C0
:102B00006840507000205B055B0DD0701383D47655
:102B10008046CA00012D33D02A4884468801624489
:102B20008446B4446046826040461060002933D039
:102B3000254AC90090466246414451603F223F33D6
:102B40009343022C00D15B0020487A19016852019E
:102B5000B218D1601E4ACB18036051405A408023FE
:102B600088465B019A4228D84346A4061C4380232A
:102B70007F197F01F61972681B062343136011E069
:102B800014488446880162448446B44460468262A4
:102B900040461060002909D100236D0175196B6052
:102BA0000D4BEB60012080BCB846F0BD084AC9005F
:102BB0009046624641445162C0E7FFF711F9D3E7FE
:102BC000481B00208400105004001050601F00209B
:102BD00000001050800010500001105010B501F09E
:102BE000B7FE10BD10B57F200C0020404000E40966
:102BF000110000191A00034B4001C01800F05CF8E6
:102C0000012010BD481B00207F23180010B508408C
:102C1000CA090B4203D107497D3B9B1A8B664000D2
:102C200080188022044B40010021C018120101F0DD
:102C300087FE10BD00201150481B00207F2213008A
:102C400010B50B400A4200D110BDC9095B005B18EA
:102C500004485B01C018002300220349C37001F03F
:102C60006FFEF1E7481B0020FFF7FFFF80220D4BAE
:102C7000520410B51A600C4B0C491A6010008B6896
:102C80009843FBD10A4C9C2200212000FFF7FAF95F
:102C90008022002152010748FFF7F4F909236367F6
:102CA00010BDC04600E0004000F0004000C0004001
:102CB0000000115000001050002310B5C3820133F2
:102CC000828283760161040001F002FE002804D0B4
:102CD00080219023074A8902D150200001F010FE84
:102CE000002802D00123237710BD200001F020FE30
:102CF000FAE7C04600201150024B5878431E984115
:102D0000C0B2704798170020024B18784007C00FD8
:102D10007047C04698170020034B1878FF38431EB1
:102D20009841C0B27047C0466C0F0020F0B5C6464F
:102D300000B52A4E05003378FF2B01D001203FE07B
:102D4000532200212648FFF79DF9264C2000FDF76D
:102D5000D5FE254B1C60254C2000143CFDF7EAFEF7
:102D6000200001F0E3FB224B224F1C60224B9846CF
:102D7000002B1DD03800FFF701FB204B18603B787B
:102D800042460024002A15D01D4A904642469C42E5
:102D900019D3904701343B78E4B2A342F6D228001D
:102DA0003570FFF73DFE2800FFF722FE012007E007
:102DB0003B78E5E700F012FF3B78002BEFD00020D6
:102DC00080BCB846F0BD0D4A630012681B19DB00D9
:102DD000D318002BF3D01A68DBE7C0466C0F002035
:102DE0009817002050170020EC170020640F0020D7
:102DF000F0170020CD1F00207D230010701400204C
:102E0000DD3B0010F0B5DE4657464E464546E0B580
:102E100091B001F0BFF8002800D115E1CF4BD04EA2
:102E20000193D04B0DAC0293CF4B9B4635686A693A
:102E3000EFF3108172B61368002BFCD0BFF35F8FE5
:102E4000A9612800210001F0AFF96A69AB69BFF3FD
:102E50005F8F0021116083F31088002800D1F3E018
:102E60006378082BE2D8019A9B00D3589F46636889
:102E7000002BDBD0A0689847D8E77F222179B94D95
:102E80000A405300C809EB181B18180001273030FE
:102E9000C578BD43C570C5780337BD43C570002AEA
:102EA00000D1EEE0B14ADB7C002A06D0B04A1278AD
:102EB000934200D247E19B1ADBB2002B00D0C3E063
:102EC000AC4DA36862792078A847AFE70122A54DF1
:102ED00001212B78042013432B703323EA5C8A43AF
:102EE000EA54EA5C8243EA540133EA5C8A43EA54D6
:102EF000EA5C8243EA54237800209A4600F022FDDF
:102F0000602223791A40602A0DD0402A00D1BEE009
:102F1000DB06DB0E012B00D13CE1022B00D1D3E01C
:102F2000002B00D1C2E020780021FFF76DFE802148
:102F30002078FFF769FE79E7029B1B78DB0700D456
:102F400074E78D4B002B00D170E700E000BF6DE708
:102F5000844D2B78DB0700D468E7884B002B00D129
:102F600064E728780007C00F00E000BF5EE7237821
:102F70007F4F7E4A984600253B78002A49D0B146CB
:102F80003E005F463A009D4265D34046904701357A
:102F90003378EDB2AB42F5D24E46BB46714D53226B
:102FA00000212800FFF76EF81022FF21E81CFFF730
:102FB00069F828002022FF211330FFF763F82EE084
:102FC00023786B4F694A984600253B78002A2FD01A
:102FD000B1463E005F463A00AB4247D84046904774
:102FE00001353378EDB2AB42F5D24E46BB465D4D6E
:102FF000532200212800FFF745F81022FF21E81C8A
:10300000FFF740F828002022FF211330FFF73AF89D
:1030100015E0404600F020FE3B78002BBED000F0CB
:1030200087FC574B002B00D100E700E000BFFDE616
:10303000404600F011FE3B78002BD8D0494D00F0FF
:1030400077FC2379AB70F1E611B0F0BCBB46B24619
:10305000A946A046F0BD4B4A6B0012685B19DB0025
:10306000D318002B00D1ADE15A688EE7454A6B00BA
:1030700012685B19DB00D318002B00D1A5E15A6858
:10308000ACE7A3686279207800F070FCCEE63E4899
:10309000002800D147E700F055FC012150460EAA58
:1030A00000E000BF002800D0C0E63CE7202A00D1A5
:1030B000A5E0002A00D036E76379092B00D932E772
:1030C000324A9B00D3589F467023217A0B4200D08E
:1030D00029E70F330B405B00CF09E818C019C07C0B
:1030E000039384462148002808D02148007884456D
:1030F00000D2A7E06346181AC3B29C466046002877
:1031000000D099E0002A00D058E1214B984663791D
:103110001A00994602239A43012A00D158E14B46EE
:10312000002B00D0FFE6039B0CAAEB18DB19303311
:10313000DB7802329B07DB0F1380504602230EA977
:1031400000F0A0FB72E60F4A58001268C318DB00BB
:10315000D318002B00D177E71D69B2E6AC4B001005
:10316000F017002098170020593C00107D23001014
:10317000CD1F00204D3E00100000000000000000A8
:10318000000000007014002000000000D04B001070
:10319000384C0010237A0F2B00D9C4E6B74AEB183D
:1031A000DB78002A05D0B64A1278934265D39B1A81
:1031B000DBB2002B00D0B6E6B248B34D00F0C2FB44
:1031C00001215046EB680EAA9847002800D02DE652
:1031D0006022150023791D401A4200D0A3E66379CE
:1031E0000A3B012B00D99EE600F0ACFB63790A2B69
:1031F00000D12FE150460EA900F02EFB16E6237AEF
:103200000F2B00D98FE69D4AEB18DB78002A06D0F9
:103210009B4A1278934200D2FFE09B1ADBB2002B4C
:1032200000D080E69748984D00F08CFB0121504675
:10323000EB680EAA984735E7002A00D073E6002312
:10324000984664E763465B009846C4446346DB00E7
:103250009C468E48006860448046002A00D156E7AC
:10326000002800D15FE6C06800F06CFB43460121F6
:103270005046DB680EAA984714E7844A590015683F
:10328000CB18DB00ED18002D00D14CE6E86895E77F
:10329000E388012B00D046E608222B785046934362
:1032A0000EA92B7000F0D8FAC0E5022029780CABEB
:1032B0009A1C8B068908DB0F01400B433CE7A3797E
:1032C00099466B78994507D06B78002B00D047E181
:1032D0004B46002B00D0E5E04B4650460EA96B70E4
:1032E00000F0BAFAA2E56B780CAA023213705046CD
:1032F00001230EA900F0C6FA98E5E3881A0AD8B2AD
:103300000F2A00D90FE662499300CB589F460EA8BA
:1033100000F01EFB5046A179FFF770FB02222B78CC
:1033200013432B7082E5E388012B00D0FBE50822D4
:103330002B78504613430EA92B7000F08DFA75E5DB
:10334000544B002B00D1EEE500E000BF021E00D17F
:10335000E9E5D37891781B020B4350460EA900F0A3
:1033600091FA9FE64C4B002B00D1DCE500E000BF5A
:10337000021E00D1D7E5504613780EA900F082FA5C
:1033800090E62189FFF7FCF9021EF4D1CBE5022A71
:1033900000D15CE1414B002B00D1C4E500E000BF4F
:1033A0000200002A00D1BEE5D3E7FFF7E1F91223BE
:1033B00002000EA9504600F065FA73E6324B314820
:1033C000984651E74E46BB4629E64E46BB4635E693
:1033D000E288002A0BD14B46314A1078012B27D0C6
:1033E000039BEB18DF193037FB789B073BD543462F
:1033F000002B00D11AE5D86800F0A4FA4346012159
:10340000DB680EAA50469847002000F09BFA342350
:10341000EB5CDB0700D509E5ECE61C4A59001568B2
:10342000CB18DB00ED18002D00D17CE5E868FBE649
:10343000039BEB18DF193037FB789B07D7D5FFF7D5
:10344000FDFB0222FB7893434A46FB70FB789343D3
:10345000FB70CCE70CAB9A1C504601230EA91570EB
:1034600000F010FAE2E4FFF7CFFB0222FB781343EF
:103470000122FB70FB781343FB70B8E77D2300103B
:10348000CD1F0020693D0010384C00107014002042
:10349000F84B0010000000000000000000000000D9
:1034A0006C0F0020581EC0B2FFF766F9002800D14B
:1034B00039E543780793022B00D034E50121C37925
:1034C00007009A115B110A400B4052011B01134384
:1034D0002A782F318A4313432B70C37882781B02DA
:1034E0001343C3180693664BA8460593654B0937EB
:1034F0000A934B46B1460B93069BBB4200D8AAE009
:1035000001227B7803920B2B03D1FB7803933B784A
:10351000FF187B78042B21D10025069BDB1B9BB277
:103520000493059B1A780A9BAB424DD0564B0893E7
:10353000564B0993089B099EAA427FD839005046F2
:10354000049A98478446082802D9049A824247D2AE
:10355000059B01351A78EDB2AA42EBD24E46E2E461
:103560005046FFF73BFBAB78454F464A039300219B
:103570003B78002A1FD0464A04922A000D0090464C
:10358000049A9D4250D35046904701353B78EDB2A6
:10359000AB42F5D24546532200212800FEF772FDCA
:1035A0001022FF213B48FEF76DFD2022FF213A4803
:1035B000FEF768FD05E0504600F04EFB3B78002B1F
:1035C000E9D0039BAB7083E6049E3900320050467D
:1035D00000F058FB84460828C0D98642BED32B4E43
:1035E000039B012B44D00022404609E0BB78D3184E
:1035F000DBB2C318D978FF29B0D10132DD70D2B265
:10360000039B9A42F2D166462B0039008046320075
:10361000214800F045FDB446059B67441B78AB424A
:1036200000D369E74E467EE41C4A6B0012685B19C2
:10363000DB00D318002B19D05A68A4E71823174AC7
:103640006B431668F618002E88D0B36876E7FFF74C
:1036500093F80200A5E60B9B4E469946104B454653
:10366000002B00D138E600E000BF35E64546A8E76C
:10367000054BB2689A42B6D1079B0393B3E7C046A5
:10368000CD1F00207D230010853C0010384C001019
:10369000593C00109B170020AB170020701400202D
:1036A00000000000F8B557464E46DE4645460C0081
:1036B000E0B516001F00002A3CD01F4B00259A469B
:1036C000702399461D4B9B4617E05B462000997876
:1036D00000F0A8FC00281FD021004046FFF7FAF9AF
:1036E000002819D0A378DA09012A1CD00A9A0135DA
:1036F00013702378E418B5421CDA6378052B0BD1DC
:10370000E3789B079B0FBB4206D153464A461B7882
:103710009846A3781A42D8D00020F0BCBB46B246E7
:10372000A946A046F8BD0B9A013513702378E4181A
:10373000B542E2DB0120F0E76C0F00209817002073
:10374000802310B51B0184B001930E4B02901C68BE
:1037500003916269EFF3108372B611680029FCD0FF
:10376000BFF35F8FA361200001A900F0DFFD626954
:10377000A369BFF35F8F0021116083F3108804B049
:1037800010BDC046F0170020702270B5094B0C0028
:103790001D788B781A4201D0002070BD064B2000A6
:1037A000997800F03FFC0028F6D021002800FFF7B0
:1037B00091F9F2E76C0F0020981700200B007F2092
:1037C00010B51840DB0933334000044AC018044BDD
:1037D0001168C01800F0E2FB10BDC046EC170020D5
:1037E000981700200B007F2010B51840DB093333F9
:1037F0004000044AC018044B1168C01800F0F6FBE2
:1038000010BDC046EC1700209817002070B57F242B
:103810000F480C4064000419CD0964193034E07875
:10382000C00701D5002070BD0126E5780948354361
:103830000078E570FFF7D6F90028F4D10122E3788B
:103840009343E370E37803329343E370EAE7C046BF
:10385000981700206C0F002070B5094C0600082254
:1038600020000D00FEF714FC00238021E360A3601C
:103870002B783000994300220023FFF7C7FF70BD6B
:103880003C170020F8B5CE4647469046264E80B5F8
:103890008146082230000D001F00FEF7F9FB434669
:1038A000B3600023F381EC79AB7924021C43231C21
:1038B000BC4200D93B1C9FB2B381002C0ED0002F1C
:1038C00018D04346002B2CD03B1C402F1BD89FB256
:1038D00033787F2B1CD80021144A0FE080212B78ED
:1038E0000022994348460023FFF790FFC0BCB94629
:1038F000B046F8BD7F230022317899433B0048460B
:10390000FFF784FFF2E740239FB233787F2BE2D9A1
:10391000064C3A0041462000FEF7BAFB8021220007
:10392000ECE70020E2E7C0463C17002058170020D3
:1039300010B5142200210248FEF7A4FB10BDC046BA
:103940003C170020014B18617047C0463C1700200F
:1039500010B5054C010008222000FEF799FB00235A
:10396000A360E36010BDC0463C17002070B5394C21
:103970001D0023780600DA09C9098A4213D0002005
:10398000002D00D070BD344B002B03D0210030003F
:10399000FFF792F82369002B03D0220003213000A7
:1039A00098470120EEE7A0687F2B05D8002834D087
:1039B0002A002A49FEF76CFBE289A1685219E388C4
:1039C00092B24919E281A160934214D03F2D12D9DD
:1039D000A389981A051C80B240282AD82078ADB255
:1039E0007F2828D800219A4232D01C4A2B00300070
:1039F000FFF70CFFC6E72369002B05D02200022148
:103A00003000984700280AD080212378002299436B
:103A100030000023FFF7FAFEB4E70020B2E70021F0
:103A20003000FFF7F1F830008021FFF7EDF80120BA
:103A3000A8E74025D2E79A4207D0084C2A00200088
:103A4000FEF726FB80212200D0E780210022CDE76F
:103A50000022CBE73C170020B92A0010581700209D
:103A600010B50400FFF748F9002801D1002010BD6F
:103A7000FFF74AF90028F9D1B22292006243034BC2
:103A800001309B181B791840F1E7C04674140020E0
:103A9000B2239B00434310B50248181800F050FBB6
:103AA00010BDC04684140020F0B5B225AD004543DA
:103AB0002C00C646174F1034E41900B5200092B20E
:103AC00000F0C0FB0600200000F058FB3F2803D8A0
:103AD000300080BCB846F0BD7B190020D9789846EC
:103AE000FFF76CFE0028F3D0200000F047FB3F28D2
:103AF0000AD992239B00EA184346D219D9780020AC
:103B00004023FFF783FEE3E743460020D978FFF721
:103B100069FEDDE774140020F8B50400FFF7ECF847
:103B2000002801D10020F8BDFFF7EEF80028F9D1F8
:103B3000B2239B005C432500144E2435AD192800A8
:103B400000F0FEFA0028EDD037190020B978FFF711
:103B500035FE0028E6D0A2239B009C466444A419AD
:103B600021002800402200F06DFBB978051E08D026
:103B7000030022000020FFF749FE0028D2D02800D1
:103B8000D1E70020FFF72EFECCE7C04674140020DA
:103B900070B5B224A4004443094B0500E41820008A
:103BA00092B200F007FC0600200000F0C9FA3F289E
:103BB00001D8300070BD2800FFF7AEFFF9E7C0461E
:103BC00098140020B2239B00434310B502481818F4
:103BD00000F0D4FA10BDC04698140020B222F0B50F
:103BE0001B4C83B0002120009200FEF74BFAFF230C
:103BF0006371184B80260025E380012708232100EC
:103C00002000760023733200278138310095073B6E
:103C1000103000F05FFA2100200039313200FF310E
:103C200001230097243000F055FA8E239B00E618FC
:103C30003000FCF763FF90239B002662E6183000FB
:103C4000E561FCF75BFF2663656303B0F0BDC0462A
:103C50007414002000C2FFFF10B5094C052200219A
:103C60002000FEF70FFA20002434103000F05EFC34
:103C7000200000F05BFC0121200000F077FC10BD6B
:103C800074140020F0B54B79060083B0022B02D1EA
:103C90008B79022B03D00025280003B0F0BD2F4FF5
:103CA000BB78002BF7D18B7809253B700C780C1969
:103CB0006378242B0BD1082A02D81FE0AA421DD317
:103CC0002378E4185D196378ADB2242BF6D0052B68
:103CD00031D0042B12D163790A2B0FD1204B2778D6
:103CE000019301330093022202233000E119FFF710
:103CF000D9FC0028CFD00E35ED19ADB2194C2000FB
:103D000000F03CFA3F28C7D92600103E0020F17889
:103D1000FFF754FD0028BFD0200000F02FFA3F2805
:103D200017D98E239B00E218F93BF178FF3B002066
:103D3000FFF76CFDB0E721003000FFF725FD0028FC
:103D4000A9D0A3787B7023785D19E4186378ADB2AD
:103D5000BFE7F1780020FFF745FD9DE774140020D0
:103D60007614002084140020F8B560231400127823
:103D7000050013400020202B12D12F4A63792779A8
:103D800016781B023B439E420AD16378222B27D030
:103D900007D8202B17D0212B02D101293DD001209B
:103DA000F8BD232BFCD101293FD00329F7D1234BA8
:103DB000002BF4D0E178A37809020020194300E039
:103DC00000BF0120ECE7012927D00329E7D11C4BD4
:103DD000002BE4D00020911DFEF7D6FA0120DFE78A
:103DE000012922D00329DAD101252E00A378E47815
:103DF000023924021C431471264024321000714001
:103E000000F0B4FB0F4B002BC9D06208002031003A
:103E10002A4000E000BF0120C2E70723210028005C
:103E2000094AFFF72FFD0120BAE721002800FFF71C
:103E300013FD0120B4E7C046741400200000000008
:103E400089230010000000007A140020F8B54546D0
:103E50005746DE464E46E0B5464D1F00EA7880469E
:103E60000C00AB788A4246D000208B421AD0F0BCBE
:103E7000BB46B246A946A046F8BD3F4B002B04D036
:103E8000484600F073F900286CD0484600F076F9F7
:103E90003F2807D94E46103E0020F178FFF78EFCF0
:103EA000002851D1AB78A34201D00120DFE7334B8A
:103EB000002B02D0002000E000BF0020FFF72CFE06
:103EC0000028F2D12E4C200000F03AF90028ECD165
:103ED000002FEAD0BF06E8D1243C4046A178FFF786
:103EE0006DFC0028E1D0002300224046A178FFF7B6
:103EF0008DFC0120BBE792239B00EE1810239B460C
:103F0000AB4431005846BAB200F054FA1D4BD946C2
:103F1000002BB2D06B79FF2BAFD0002FADD0F219B0
:103F2000924603E00136B245A7D06B7932789A42C7
:103F3000F8D1484600F01AF90028F3D14B46103B5F
:103F4000597900E000BFEDE7484600F017F93F2837
:103F50000BD98E2292004023F1784A440020FFF7CB
:103F600055FC9FE7FEF784FB8FE7F1780020FFF711
:103F700039FC97E77414002071260010000000003F
:103F8000981400200000000010B50020FEF7CEFEBF
:103F900010BDC04610B5FEF7BFFE10BD037870B56A
:103FA000DB0704000E00DD0F002B17D103785B0741
:103FB00001D5280070BD01213000494200F0A8FC65
:103FC0002378DB07DD0F002B0AD123785B0708D4A9
:103FD0000422237801251343237002E00025E8E73B
:103FE0000025300000F06CFCE3E7C04670B50C0023
:103FF000012106004942200000F08AFC33785B076B
:10400000DD0F002B04DB200000F05AFC280070BDFF
:104010003378DB0704D40422337893433370F2E718
:104020000025F0E7437902791B0213435B055A0D23
:10403000C3789B079B0F022B05D0032B15D00020C4
:10404000012B08D0704702291ED000204023934244
:104050004041C0B2F6E702394B4259410D4B9C46F4
:10406000614491424041C0B2ECE702394B1E994194
:10407000094B494219408023DB009C4600206144E3
:1040800091424041C0B2DDE7044BD0184342584151
:10409000C0B2D7E7FF03000040FCFFFF00FEFFFFB8
:1040A0008A1870B5914207D27F264C78052C04D02F
:1040B0000C7809198A42F8D870BD34008D782C40EC
:1040C00064000419ED0963550C7809198A42ECD88B
:1040D000F2E7C046F0B5C64600B5040006A805786C
:1040E0008020884617001E000002824226D8E06821
:1040F000002803D00121494200F00AFC2069002871
:1041000003D00121494200F003FC434623607304BD
:104110005B0CED031D430023E0686381A780E5800D
:104120002381002801D000F0CBFB2069002801D0BA
:1041300000F0C6FB012080BCB846F0BD0020FAE7C5
:1041400010B5048941898288A3B288B28C4207D312
:104150001B1A9BB2101C9A4200D9181C80B210BDC9
:104160005100091A5B189BB2F4E7C04603894089E5
:10417000181A43425841C0B27047C04610B504896E
:1041800041898288A3B288B28C4207D31B1A9BB2A2
:1041900000209A4201D9D21A90B210BD5100091ADA
:1041A0005B189BB2F4E7C04670B5040000690E00CE
:1041B000002803D00121494200F0AAFB258960892B
:1041C000A288A9B283B285422BD3CD1AADB2002DFD
:1041D0002DD0AA4208D291422FD3891A8BB2638183
:1041E0009A4203D89B1A9BB29A42FBD9E288216873
:1041F0005204520C53433000C918FDF749FF63893C
:104200000125591C89B2A2888B4212D95200891A01
:1042100089B220696181002801D000F051FB28009B
:1042200070BD5500ED1A4D19ADB2002DD1D1618987
:1042300089B252009142ECDBE9E789188BB26381C5
:10424000CEE7C046F0B546464F46D646C0B5060056
:10425000006989469046002803D00121494200F0B8
:1042600057FB31897289B5888BB294B2914254D38D
:104270001F1BBFB2002F4AD0BD4205D2AB4251D264
:104280005B199CB22F0074814346B8453DD89FB25C
:10429000A54203D8641BA4B2A542FBD9F2883168B9
:1042A0005204520C904662432B1B9BB28918424623
:1042B0009F4225D953439BB21A0048469A46FDF7C0
:1042C000E7FE434648467D1B64195C433168504411
:1042D000A2B2FDF7DDFE7189B588CB199BB26A00E9
:1042E000994216D99B1A9BB230697381002801D07C
:1042F00000F0E6FA3800E0BCBA46B146A846F0BD88
:1043000048467A43FDF7C4FEE5E73B1CBFE77389E7
:104310009BB26A009342E7DBE4E76F003F1BDF19C3
:10432000BFB2A7E75B1B9CB2ACE7C046F8B5040080
:10433000C0680E00002803D00121494200F0E8FACD
:10434000258920896189A288ADB283B28FB2884263
:1043500028D3DB1B9BB29A4209D8E779FF0906D123
:10436000E068002801D000F0ABFA3800F8BD2B005F
:10437000954203D39B1A9BB29342FBD2E2882068FA
:104380005204520C53433100C018FDF781FEA2883D
:104390006B1C9BB252009D4209D99B1A9BB201270C
:1043A0002381DDE75100C91B5B189BB2D3E7934221
:1043B000F5DBF2E7F0B557464546DE464E46E0B53A
:1043C000140005000F0083B0002A75D0C0680028D3
:1043D00003D00121494200F09BFA2E89E9796A89CC
:1043E000AB88B6B292B2C90945D1964200D36DE00E
:1043F00059008A1AB21892B2002189469A4234D2E0
:104400009A1A111C92B2A24200D9211C8AB291467A
:10441000EA885204520C90464A46B21892B292462A
:104420004A46D21A92B2934634009E4203D3E41A0B
:10443000A4B29C42FBD24246624328681B1B9BB23B
:10444000801842464B4554D34B4639005A43FDF73A
:104450001FFEAB885B00B24501D39A4503DB524691
:10446000D31A9BB29A4653462B81E868002825D080
:1044700000F026FA22E0E9884904490C88469C426B
:1044800027D2964247D3B11A89B28C465800E11A16
:1044900089B28B4661460919814208DBD11889B27D
:1044A0000E1BB6B28A46B2423BD9361AB6B2A21930
:1044B00092B29246A146B7E700239946484603B018
:1044C000F0BCBB46B246A946A046F0BDB21A92B2B5
:1044D00092E700218946002BC7D04146E41A4C439D
:1044E0001600D118002289B28A46994693463F1990
:1044F0009AE753439BB21A0039005C440193FDF7DD
:10450000C7FD414622004A43019B286892B2F91830
:10451000FDF7BEFD9DE75800811A711889B28C46DF
:10452000B5E7A146B04200DD7EE7BEE710B5040066
:10453000C068002803D00121494200F0E9F9206950
:10454000002803D00121494200F0E2F90023E0688D
:1045500063812381002801D000F0B2F9206900288E
:1045600001D000F0ADF9012010BDC04670B50400C7
:10457000C0680D00002803D00121494200F0C8F9AD
:104580002069002803D00121494200F0C1F97F21B0
:10459000E379ED011940E0682943E171002801D079
:1045A00000F08EF92069002801D000F089F901207F
:1045B00070BDC046F8B5DE4657464E464546834672
:1045C000E0B505200C00FDF7B3FA060060082100F5
:1045D0008019FDF765FC43009846804407000521DB
:1045E0004046FDF75DFC3B1A9A46204B8146700021
:1045F00080199C4234D81E49FDF752FC451C5B468D
:104600001C6800230422E366236801205340023221
:104610001A4080235B0123431A605346E3614B46F3
:10462000236243464F2B03D950214046FDF738FC07
:10463000A023E050E36F22005D4080237C322D04F4
:104640005B0113432D0C1D60012339003000E3662C
:10465000FDF726FCF0BCBB46B246A946A046F8BD15
:104660000449FDF71DFC451CC9E7C0463F420F0049
:104670008096980040787D01104A70B5821A5342A6
:104680005A41072352429A430D4B10321A600D4B88
:104690000D4C1A601500A3689D432B1EFAD16624A9
:1046A0000268FF340571D5661460633C8833FF3CB3
:1046B000D5639563D450FFF77DFF70BD780F002060
:1046C00000E0004000F0004000C00040036800200F
:1046D00010B5D86680204001184300290AD08021F7
:1046E0001C6889006140074C214001609A600122EA
:1046F000DA6610BD41211A684A4002490A40026048
:10470000F5E7C0464102000070B50D4C0500041BE2
:1047100063425C410B4BE0001A5028000A00012163
:10472000FFF7D4FF2B68084A173420001A630749A3
:10473000FBF75EFF01212000FBF722FF70BDC046A2
:10474000700F0020481F002064060000750D002037
:1047500010B5010000230022002000F047F810BD32
:1047600070B5074C074D641BA41005D0013CA30095
:10477000EB589847002CF9D100F098F870BDC0466E
:10478000A80F0020A80F00207047C0467047C04601
:1047900010B583070AD00300032102E001330B4266
:1047A00005D01A78002AF9D1181A10BD030019682B
:1047B0000C4A0D4C8A188A4322420FD15968094A83
:1047C00004338A188A43224208D15968054A0433BF
:1047D0008A188A432242F1D000E001331A78002A75
:1047E000FBD1E1E7FFFEFEFE80808080F0B5D6467B
:1047F0004F4646469846244BC0B5060018689A4670
:104800000F009146FFF7C0FF204B1D68002D32D0EE
:1048100053466C6818681F2C30DC002E0CD1631CCA
:104820000234A4006B606751FFF7B0FF0020E0BCCA
:10483000BA46B146A846F0BD49468822A300EB1807
:104840009950C42149008C46AC446146873AA24045
:10485000096891461143624611608421424649002D
:104860005A50022EDBD129004A468D31FF310B68A8
:1048700013430B60D3E7064D1D60C9E7FFF786FFC2
:1048800001204042D3E7C046800F0020D81200200C
:10489000DC120020034B10B5002B02D00248FFF7BA
:1048A00057FF10BD0000000061470010F8B5C0467A
:1048B00001B40248844601BC604700BFC902002021
:1048C00001B40248844601BC604700BF2D020020AD
:1048D00001B40248844601BC604700BFAD09002016
:1048E00001B40248844601BC604700BF190E002095
:1048F00001B40248844601BC604700BFC1000020EB
:1049000001B40248844601BC604700BFD5090020BD
:1049100001B40248844601BC604700BF9D010020ED
:1049200001B40248844601BC604700BF0101002079
:1049300001B40248844601BC604700BF490B002017
:1049400001B40248844601BC604700BFF10A002060
:1049500001B40248844601BC604700BF89030020BF
:10496000534C41564520444F4E4500004E6F207336
:1049700070696E6C6F636B73206172652061766124
:10498000696C61626C6500004E6F20757365722002
:10499000495251732061726520617661696C616270
:1049A0006C650000486172647761726520616C61BA
:1049B000726D20256420616C726561647920636C7E
:1049C00061696D65640000000A2A2A2A2050414E60
:1049D0004943202A2A2A0A000A000000486172641A
:1049E000206173736572740052656C656173650054
:1049F000626F6F74325F773235713038300000008B
:104A0000302E3100312E352E300000007069636F7A
:104A1000000000007069636F2D69326300000000C0
:104A20004D6179203134203230323300060052504B
:104A3000D3F07542E849001006005250E182887FA9
:104A4000F0490010060052503ABCA911004A00106B
:104A500006005250BBFF3CB60C4A00100D0A000085
:104A6000E1220010E5220010F12200101D230010A9
:104A7000192300100000000055534220737464692C
:104A80006E202F207374646F7574000006005250FE
:104A900053B4F4A1784A0010526173706265727267
:104AA00079205069000000005069636F0000000029
:104AB000426F617264204344430000005265736595
:104AC0007400000000000000984A0010A84A00107E
:104AD000BC1F0020B04A0010BC4A0010090254005C
:104AE000030100807D080B0002020200000904009F
:104AF0000001020200040524002001052401000138
:104B000004240202052406000107058103080010A1
:104B100009040100020A000000070502024000002B
:104B2000070582024000000904020000FF000105A1
:104B300012010002EF0201408A2E0A000001010268
:104B400003010000556E68616E646C656420495213
:104B50005120307825780A0065702025642025735F
:104B60002077617320616C72656164792061766180
:104B7000696C61626C65000043616E277420636F2D
:104B80006E74696E75652078666572206F6E206937
:104B90006E616374697665206570202564202573D5
:104BA000000000006F757400696E00002C2E00106C
:104BB000C02F00106E2F00102C2E0010502F001050
:104BC000382F0010CC2E00107A2E00106E2E001000
:104BD000AA32001090320010262F00102633001049
:104BE000262F00100E330010FA320010262F00106E
:104BF000E6320010BE320010262F0010AA3300103B
:104C00008E33001082330010262F0010262F001044
:104C1000643300108E330010262F0010262F001052
:104C2000262F0010262F0010262F0010262F0010F0
:104C3000262F001040330010DD3B0010593C0010BF
:104C4000853C0010693D00104D3E00100000000042
:104C50002C4A0010384A0010444A00108802001004
:104C6000504A001094020010A0020010AC02001084
:044C70008C4A00105A
:104C740003000068EFF3108C72B60268002AFCD0BF
:104C8400BFF35F8F04229A56002A04DB002900D068
:104C94000A60002004E0D0220120120612681A7172
:104CA4001B68BFF35F8F00221A608CF31088704773
:104CB400F0B5C646150000B504001E000268EFF307
:104CC400108172B61368002BFCD0BFF35F8F0423EE
:104CD400E356002B2DDB2268BFF35F8F00201060AA
:104CE40081F31088D0221206127852B290469A426A
:104CF40003D1002080BCB846F0BD00270BE0236838
:104D0400BFF35F8F1F6081F310882800310000F02B
:104D140067FE0028EDD12268EFF3108172B61368A4
:104D2400002BFCD0BFF35F8F23797F2BE7D9434659
:104D340002E0D0231B061B6823712368BFF35F8F37
:104D440000221A6081F310880120D3E7F0B5C6462B
:104D540000B50D00040000F053FEFA2206000F0017
:104D6400002328000021920000F062FE8023361800
:104D74004F411B069F4202D30126174F7642D02390
:104D84001B061B68002598460BE02368BFF35F8F62
:104D94001D6081F310883000390000F021FE0028E6
:104DA40018D12268EFF3108172B61368002BFCD07F
:104DB400BFF35F8F23797F2BE7D9434623712368A1
:104DC400BFF35F8F00221A6081F31088012080BC3A
:104DD400B846F0BD0020FAE7FFFFFF7F0268EFF35B
:104DE400108172B61368002BFCD0BFF35F8FFF23D2
:104DF40003710368BFF35F8F00221A6081F3108888
:104E040040BF704710B5084C2378002B0AD180238B
:104E1400064807495B051A68C25004338B42FAD12D
:104E24000123237010BDC046CF1F0020C4180010FA
:104E34000001001010B5014B984710BDC5180020A3
:104E4400034B1A68C0239B009343024A13607047C4
:104E54000C8001400C900140054B1A6880239B0094
:104E64005340C02292001340024A13607047C04668
:104E74000C8001400C9001401423F0B5D6464F46F7
:104E840046469A46814618880433C0B598460E00B3
:104E94001B88264914009847534607001888434640
:104EA40023491B88984753460500188843462149DF
:104EB4001B8898478046FFF7A5FFB847A847FFF728
:104EC400CBFF221E20D0C02108270220490511E073
:104ED400002C14D0131B0D2B20D9002D0AD0230035
:104EE400002A05D00B6E013A3370130001362343B8
:104EF400002B09D03D008B6A1D401842E8D1002DDB
:104F0400EDD123001343F5D1FFF79AFFC047FFF714
:104F140091FFE0BCBA46B146A846F0BD4B461B78AB
:104F2400013C0B6601239C46E144E8E74946000046
:104F340045580000464300000022154B10B59A6006
:104F4400DA601A615A619A61DA611A625A629A6283
:104F5400DA621A635A639A63DA631A645A649A6463
:104F6400DA641A655A659A65DA651A665A669A6643
:104F7400DA661A675A679A67DA67F0329200002194
:104F8400044800F025FD044B044A1A6010BDC046D5
:104F940000001050881B0020601F0020800110506A
:104FA400F0B55746DE464E464546E0B5244B87B03D
:104FB4009F6D002F23D0234B00249946012398464C
:104FC400214B01269A4604E001347600E4B2202CF9
:104FD40015D03E42F8D04B469E65434665086D00A9
:104FE400A343ED186D015544280000F0BBFB0028D5
:104FF4000CD10134B743E4B27600002FE7D107B0F7
:10500400F0BCBB46B246A946A046F0BDAB7802A8A8
:105014009B46EB8A062200210630019300F0D8FC5F
:10502400E023594602AADB009380019B117203A876
:105034000121059300F0BEFB280000F02BFBD8E70C
:105044000000115000301150481B00209823C84A1A
:10505400F0B5D55880232C009B02102685B01C4047
:105064001D427AD0C34BC44C9A6AC44B00261A60C2
:105074003B23E35C022B00D1DFE07B23E35C022BC8
:1050840000D1B9E1BB23E35C022B00D1A9E1FB23EE
:10509400E35C022B00D199E13C23FF33E35C022B58
:1050A40000D158E17C23FF33E35C022B00D145E1BE
:1050B400BC23FF33E35C022B00D132E1FC23FF333A
:1050C400E35C022B00D11FE1AD4BE35C022B00D16A
:1050D4000EE1AC4BE35C022B00D1FDE0AA4BE35C98
:1050E400022B00D1ECE0A94BE35C022B00D1DBE006
:1050F400A74BE35C022B00D1CAE0A64BE35C022B76
:1051040000D1ABE0A44BE35C022B00D17FE1A34BC5
:10511400E35C022B00D196E1002E08D1A04B1B7852
:10512400002B04D180219F4A90338902D150904BA7
:105134000A229C6C6B460021981D00F049FCC02398
:10514400640501AE9B00640D33803000029401219C
:10515400802400F02FFB944EA402EB0669D4802334
:105164005B021D4214D0012223211C43824B5A545A
:10517400DA70C0238D4ADB00019302AB03CA03C378
:10518400012101A800F016FB8022864B92021A65C9
:1051940080235B011D4233D18023DB011D421CD1DE
:1051A40080231B021D4204D1AC4200D0C8E105B0EB
:1051B400F0BD1C436B460A220021981D00F008FC38
:1051C400A02301AEDB0033800121300000F0F2FAAD
:1051D4008022744B12011A65E6E71C436B460A22CF
:1051E4000021981D00F0F4FB802301AEDB00338026
:1051F4000121300000F0DEFA10226A4B1A65CFE775
:1052040000221C435A4B01AE1A60FFF795FE6B4611
:105214000A220021981D00F0DBFB80235B00338011
:105224000121300000F0C6FA80225E4B12031A6599
:10523400B2E7FFF7B5FE340091E73833E65C002EA1
:1052440000D11AE70233E25C002A00D115E72000FE
:1052540000222030E25400F04FFA0EE7544BE75C92
:10526400002F00D14EE70233E25C002A00D060E157
:10527400494BE35C022B00D1DBE0484BE35C022B9F
:1052840000D054E74B4BE35C002B00D0E0E04EE74A
:10529400494BE75C002F00D12FE70233E25C002A80
:1052A40000D03EE13E0028E7444BE75C002F00D1EC
:1052B4001EE70233E25C002A00D02AE13E0017E731
:1052C4003F4BE75C002F00D10DE70233E25C002A7C
:1052D40000D016E13E0006E73A4BE75C002F00D110
:1052E400FCE60233E25C002A00D002E13E00F5E66F
:1052F400354BE75C002F00D1EBE60233E25C002A79
:1053040000D0EEE03E00E4E6F933FF33E75C002F23
:1053140000D1D9E60233E25C002A00D0D8E03E0096
:10532400D2E6B933FF33E75C002F00D1C6E602337F
:10533400E25C002A00D0C2E03E00BFE67933FF33CE
:10534400E75C002F00D1B3E60233E25C002A00D010
:10535400ACE03E00ACE63933FF33E75C002F00D10C
:10536400A0E60233E25C002A00D096E03E0099E613
:105374000000115000400540481B0020401B002045
:105384003B0200007B020000BB020000FB020000A5
:105394003B0300007B030000BB030000FB03000091
:1053A400CE1F0020003011501000020000001050E9
:1053B4007A030000FA0300003A030000FA02000036
:1053C400BA0200007A0200003A020000F833E75CF7
:1053D400002F00D160E60233E25C002A55D13E0082
:1053E4005AE6B833E75C002F00D150E60233E25CA2
:1053F400002A42D13E004AE67833E75C002F00D110
:1054040040E60233E25C002A2FD13E003AE64F4BDD
:10541400E35C002B00D17AE6EF239B00E25C002AD8
:1054240000D12AE70022E2541C3BE01800F064F9A2
:1054340023E7464BE35C002BEED1454BE35C022BA8
:1054440000D074E63E00434BE35C002B00D163E6DE
:10545400FF239B00E25C002A00D168E60022E254AC
:105464001C3BE01800F048F961E62000002260309F
:10547400E2543E0000F040F904E620000022A0308F
:10548400E2543E0000F038F901E620000022E0304A
:10549400E2543E0000F030F9FEE520000022213005
:1054A400FF30E2543E0000F027F9FBE52000002223
:1054B4006130FF30E2543E0000F01EF9F8E52000B0
:1054C4000022A130FF30E2543E0000F015F9F5E56A
:1054D40020000022E130FF30E2543E0000F00CF9DD
:1054E400F2E50022E2541C3BE01800F005F93E000E
:1054F400EFE50022E2541C3BE01800F0FDF83E000A
:10550400ECE50022E2541C3BE01800F0F5F83E0004
:10551400E9E50022E2541C3BE01800F0EDF83E00FF
:10552400E6E50022E2541C3BE01800F0E5F83E00FA
:10553400E3E50022E2541C3BE01800F0DDF897E6B6
:1055440021000548694000F063FAC046BA03000030
:10555400FB030000FA030000444B0010084A030058
:10556400126C0020920703D49A78D209012A00D041
:105574007047D87E023843425841C0B2F8E7C0466B
:105584000000115010B5FFF7E9FF00280CD00749BF
:10559400074B8C46074A9B6A126863449B1A002097
:1055A400C6229A424041C0B210BDC046E0FCFFFF93
:1055B40000400540401B0020F8B5028B838A04009C
:1055C4000F00161C9A4200D91E1CE2788021150097
:1055D400681E8541B6B2C90031436D030D430121F4
:1055E4004A409B1BE27062789BB2A382002A09D0D6
:1055F400002B02D18023DB011D43002F00D02D049A
:105604002800F8BDE068BB01C0183200216900F031
:10561400EFF923699B19236180231B021D43A38A8D
:10562400E6E7C046836870B504001D68002900D011
:105634002D0C6378AD05AD0D002B09D1E38AEB1871
:10564400E382238BAB4201D90023A382280070BDDF
:10565400E368890159182A00206900F0C9F9E38A2E
:10566400EB18E38223695B192361EAE710B50400B0
:10567400836800211B68FFF7D5FF63681B685B0024
:1056840002D5238B834200D010BD01212000FFF7F7
:10569400C9FFF9E700238376436103617047C0467D
:1056A40010B58368002901D01C682140002A11D05C
:1056B4008024E400114322420CD01A6822420BD108
:1056C4000A4A0A401A60FFE7FFE7FFE7FFE7FFE740
:1056D400FFE78368196010BD81787F20CA09044BF5
:1056E40092000140D258034800F092F9FFFBFFFFFB
:1056F400480F0020584B0010436870B500218025E6
:105704001E680400FFF758FF134B6D011B6C054323
:105714009B070FD5A3785B060FD0104B1E40802348
:105724009B05334362680021136020002A00FFF7C1
:10573400B7FF70BDA378DB09EFD0A38A002BECD0B0
:1057440001212000FFF738FFA023054ADB05324082
:1057540005431343E6E7C04600001150FFFFFFAFC7
:10576400FFFFFFDF70B5857E0400002D14D0FFF726
:105774007DFFA38A002B01D1280070BD2000FFF714
:1057840001FF002803D0012300252377F4E720003C
:10579400FFF7B2FF0025EFE781787F20CA09034BAA
:1057A40092000140D258024800F032F9480F00201C
:1057B400784B0010F0B54378050085B0042B00D178
:1057C40075E046D8022B00D183E0032B55D1504E0F
:1057D400504A00243378002A00D192E04E4F03E06F
:1057E4000134E4B29C4213D8A342F9D96200396867
:1057F4001219D2008A18002AF2D05269002AEFD076
:1058040069682878904701343378E4B29C42EBD934
:10581400424B1A78520748D504211A788A431A70E1
:105824006B460A220021981D00F0D2F86A462B78B4
:105834001371052353713A4B1C686269EFF31081AD
:1058440072B61368002BFCD0BFF35F8FA16101A96E
:1058540020E0052B11D1314B1A78D20725D504212C
:105864001A788A431A702E4B1C686269EFF3108110
:1058740072B61368002B09D1FBE7294B1C686269D7
:10588400EFF3108172B61368002BFCD0BFF35F8F67
:10589400A1612900200000F0C3F86269A369BFF385
:1058A4005F8F0021116083F3108805B0F0BD1B4B9E
:1058B4001A78D207F9D504211A780A431A70184BBA
:1058C4001C686269EFF3108172B61368002BDDD196
:1058D400FBE70120114A1178814311701178994333
:1058E400002311700421537013788B4313700C4BF5
:1058F4001C686269EFF3108172B61368002BC5D17E
:10590400FBE700220132D2B29A42FBD980E7C046BB
:10591400CD1F00207D230010701400209817002054
:10592400F0170020F0B5EFF30583C6461E0000B55E
:10593400273E272B39D1214F3D68EC6A002C31D00A
:1059440080228023D2009B002240234061062ED572
:10595400696D002A00D06A6E002B2CD1184BF2001E
:10596400991888460979002906D0D35802213800AD
:105974009847002342461371630708D50120104B52
:10598400F20099180871D358002138009847A406EA
:1059940008D501212B6D0A4BF6009A193800F358EB
:1059A4001171984780BCB846F0BD064FC4E7002A81
:1059B400D1D1002BE0D02B6ED0E7C046780F002069
:1059C400481F0020700F00207047C04600000000F0
:1059D40001B40248844601BC604700BF8520001022
:1059E40001B40248844601BC604700BFD5110010D1
:1059F40001B40248844601BC604700BF91200010F6
:105A040001B40248844601BC604700BF091300107A
:105A140001B40248844601BC604700BFB11D0010B8
:105A240001B40248844601BC604700BF2D43001006
:105A340001B40248844601BC604700BFB11F001096
:105A44001000000000000000000001000000000041
:105A54000000000000000200000000000000000040
:105A64000000030000000000000000000000FF0030
:105A74000000000001B5486801318E4600477046B9
:105A840009380149884701BDE9090010F40E0020D6
:105A940000000000D00F0020D41A002000000000F5
:105AA40000000000E41A00200000000000000000D4
:105AB40010000000000000000000000000000000D2
:105AC400503300004C3300005433000052330000C4
