:020000020000FC
:100000000C9402004FEF44B94FEF45B941E0042E84
:1000100044274FEF4AB948E04EBF4FEF4DBF4EEE79
:1000200000FA079407F80BB84EEE45B9E9E10E94D3
:1000300021004EEF45B956ED5BB9EAEF0E94210071
:10004000EFCF002711272227442700E01E2F000FA3
:1000500017FB00F9110F000F17FB00F9110F2150CA
:1000600010400040041308C0141309C024130AC030
:1000700000000000000008950000000000000000E3
:0A0080000000000000000000EACFBD
:00000001FF
