:100000000C9452000C9464000C9464000C946400F2
:100010000C9464000C9464000C9464000C946400D0
:100020000C9464000C9464000C9464000C946400C0
:100030000C9464000C9464000C9464000C946400B0
:100040000C941A010C9464000C9464000C946400E9
:100050000C9464000C9464000C9464000C94640090
:100060000C9464000C94640000000000250028003B
:100070002B0000000000240027002A0004040404D0
:100080000404040402020202020203030303030342
:10009000010204081020408001020408102001021F
:1000A0000408102011241FBECFEFD8E0DEBFCDBF63
:1000B00021E0A0E0B1E001C01D92A930B207E1F754
:1000C0000E9464010C9458020C940000CF93DF93BB
:1000D00090E0FC01E057FF4F249184589F4FFC01B2
:1000E00084918823D1F090E0880F991FFC01EE588D
:1000F000FF4FA591B491FC01E859FF4FC591D491F0
:1001000061110EC09FB7F8948C91E22FE0958E2379
:100110008C932881E223E8839FBFDF91CF910895DC
:100120008FB7F894EC91E22BEC938FBFF6CF3FB7EB
:10013000F8948091050190910601A0910701B0917A
:10014000080126B5A89B05C02F3F19F00196A11DF7
:10015000B11D3FBFBA2FA92F982F8827BC01CD0111
:10016000620F711D811D911D42E0660F771F881F70
:10017000991F4A95D1F70895CF92DF92EF92FF929F
:100180000E9497006B017C010E9497006C197D0909
:100190008E099F09683E734081059105A8F3FF9081
:1001A000EF90DF90CF9008958031910508F03CC02A
:1001B00083529F4FFC010C943E02ED00F100F500CC
:1001C000F700F900FB00FD00FF000101030105013C
:1001D00007010C010E01100112018EE78BB982E0BC
:1001E00019C08CE08BB918B8089586EBF7CF8EE96B
:1001F000F5CF8CECF7CF8AEDF1CF8AEFEFCF8EE021
:10020000EDCF8EEFEBCF8EEDE9CF8EEEE7CF8FEF18
:100210008BB983E088B9089582E7E0CF8FE7F8CF04
:1002200082EFDCCF82EEDACF8BB964E070E00E941F
:100230002A02F0CF1F920F920FB60F9211242F9324
:100240003F938F939F93AF93BF93809101019091C0
:100250000201A0910301B09104013091000123E05B
:10026000230F2D3758F50196A11DB11D20930001D4
:100270008093010190930201A0930301B0930401C4
:100280008091050190910601A0910701B0910801AC
:100290000196A11DB11D8093050190930601A093C5
:1002A0000701B0930801BF91AF919F918F913F914A
:1002B0002F910F900FBE0F901F90189526E8230FD7
:1002C0000296A11DB11DD2CF789484B5826084BD01
:1002D00084B5816084BD85B5826085BD85B581604A
:1002E00085BD80916E00816080936E0010928100C8
:1002F0008091810082608093810080918100816083
:100300008093810080918000816080938000809143
:10031000B10084608093B1008091B00081608093CF
:10032000B00080917A00846080937A0080917A0096
:10033000826080937A0080917A00816080937A0055
:1003400080917A00806880937A001092C10061E009
:100350008EE00E94660061E08FE00E94660061E02E
:1003600082E00E94660061E083E00E94660061E036
:1003700084E00E94660061E085E00E94660061E022
:1003800086E00E94660061E087E00E94660060E00F
:1003900083E10E94660061E088E00E94660061E0FF
:1003A0008AE00E94660061E08BE00E94660061E0E6
:1003B0008CE00E94660045E4C42E5CEFB52E69EF28
:1003C000A62E7DEED72E99249394E5EF8E2E00E194
:1003D00010E0F0E0EF2EF0E0FF2EC0927C00809164
:1003E0007A00806480937A0080917A0086FDFCCF49
:1003F000C0917800D0917900B5B890E080E00E947B
:10040000D4000E94BC00A5B8DBB898B80E94BC001C
:1004100085B8CE01D7FDCF9636E0959587953A956C
:10042000E1F70E94D4000E94BC00D5B8D7FD239606
:10043000CE019595879595958795B8010E942A02DA
:100440000E94D4000E94BC00E114F10431F20E9429
:100450000000C3CF97FB072E16F4009407D077FD5A
:1004600009D00E94440207FC05D03EF49095819586
:100470009F4F0895709561957F4F0895EE0FFF1F70
:100480000590F491E02D0994AA1BBB1B51E107C014
:10049000AA1FBB1FA617B70710F0A61BB70B881F14
:1004A000991F5A95A9F780959095BC01CD010895A3
:0404B000F894FFCFEE
:00000001FF
